:040000006F10A04796
:1000040000000000000000002E1200003612000064
:100014000000000078140000000000000000000050
:1000240078140000781400000000000000000000B4
:1000340078140000000000007814000000000000A4
:10004400781400007814000078140000781400007C
:10005400781400007814000078140000781400006C
:10006400781400007814000078140000781400005C
:10007400781400007814000078140000781400004C
:10008400781400007814000078140000781400003C
:10009400781400007814000078140000781400002C
:1000A400781400007814000078140000781400001C
:1000B400781400007814000078140000781400000C
:1000C40078140000781400007814000078140000FC
:1000D40078140000781400007814000078140000EC
:1000E400781400007814000078140000E004000084
:0C00F4007814000078140000781400005C
:10010000411106C622C40008B707002003A707064E
:10011000B7479508938707406316F7000945EF1026
:10012000606925A8B707002003A70706B7E7B80549
:10013000938707806316F7000545EF10A06731A885
:10014000B707002003A70706B777DC02938707C02D
:100150006315F7000145EF10E06585450565EF1073
:1001600020690100B240224441018280011122CE67
:100170000010B707005013070004D8A7B7070050B6
:1001800013078004D8B7B7070050370700201307BC
:10019000470A98CBB707005013874188D8CBB707D9
:1001A0000050370700201307471698CFB7070050B5
:1001B0001387418CD8CFB7070050A3890702B70730
:1001C0000050A38D0702B7070050239A0702B70714
:1001D0000050239E0702B707005009472389E70212
:1001E000B70700500947238BE702B70700500947BC
:1001F000238FE702A30704FE29A80347F4FE938791
:100200000182BA97238007008347F4FE8507A3077E
:10021000F4FE0347F4FE9D47E3F1E7FE010072445C
:1002200005618280797106D622D40018232EA4FCA1
:100230008327C4FDA5C3B7070050194798A32945D4
:10024000EF102068B707005023800700B707005061
:100250001D47B8A3B70700501307900298A339377A
:10026000B7070050130710F898B39307B00323267D
:10027000F4FE8327C4FEFD8B0547B316F70037E76E
:1002800000E08327C4FE9583938707048A07BA9703
:1002900094C381A0B7070050194798A32945EF10D0
:1002A0004062B7070050238007009307B003232460
:1002B000F4FE832784FEFD8B0547B316F70037E76E
:1002C00000E0832784FE9583938707068A07BA9701
:1002D00094C30100B250225445618280797106D6E0
:1002E00022D40018AA87232CB4FC3687A30FF4FC71
:1002F000B287231EF4FCBA87230FF4FC8347F4FD76
:100300006387071C0347F4FD9D4763E2E71C03472F
:10031000F4FD93870182BA979C2393F7F70F6396B6
:10032000071A0347F4FD85476307F7000347F4FD09
:1003300091476313F702B7070050B1079C23A30747
:10034000F4FE0347F4FD85476314F7088347F4FE82
:100350009183A307F4FEADA80347F4FD8947630723
:10036000F7000347F4FD8D476313F702B70700500A
:10037000B5079C23A307F4FE0347F4FD8D476319DB
:10038000F7048347F4FE9183A307F4FE91A003478B
:10039000F4FD95476307F7000347F4FD994763139E
:1003A000F702B7070050B9079C23A307F4FE0347E1
:1003B000F4FD9947631EF7008347F4FE9183A3077A
:1003C000F4FE39A0B7070050BD079C23A307F4FE35
:1003D0008347F4FE918B638E070E8347F4FEA18B57
:1003E00091C7930700042307F4FE19A0230704FE16
:1003F0008347E4FEA1EB8347E4FD85E3832784FD87
:1004000093960701C1820347F4FDB70700149107D3
:10041000BA978A07368798C3A9A80347F4FDB70798
:1004200000149107BA978A079843B7070020BA9734
:100430003E878357C4FD3E86832584FD3A85EF10B1
:10044000A05F05A80347E4FE8346F4FDB707001448
:100450009107B6978A079C433E97B7070020BA9743
:100460003E878357C4FD3E86832584FD3A85EF1081
:10047000A05C0347F4FD93870182BA97054798A3D0
:100480000347F4FDB7070014B107BA978A073E8700
:100490008357C4FD1EA38347F4FD13972700B707B6
:1004A000005093872703BA979C2393F7F70F0347CE
:1004B000F4FD9316270037070050130727033697DC
:1004C000F19B93F7F70F1CA329A0854729A0854727
:1004D00019A0010081473E85B250225445618280B7
:1004E000011122CE0010B7070050FC23A305F4FE33
:1004F000B7070050FC332305F4FE8347B4FE898B15
:10050000E38F07328347A4FE93F707031307000224
:10051000638AE70013070003638EE742638D071CBD
:100520006F0050318347A4FE93F7F70313071002BF
:10053000638BE710130730026380E716130700028E
:100540006395E71A83D7A181C207C18391E7B707F3
:1005500000501147A389E70283C7518193F7F70F32
:1005600093F707066396071883C7418193F7F70F40
:100570001547638CE70819476395E70C83D7A1817A
:100580001397070141839307F00363E7E70083D7DD
:10059000A181C207C18319A0930700042316F4FEAA
:1005A00083A701810357C4FE3A86BE85B7070020A2
:1005B0001385470AEF10404883D7A181139707019D
:1005C00041838357C4FEB307F74013970701418364
:1005D000239DE18003A701818357C4FE3E9723A892
:1005E000E180B70700500357C4FE9ABBB70700501D
:1005F00083C7270313F7F70FB707005013474700C8
:100600001377F70F2389E70235A8B7070050BC33EB
:1006100093F7F70FE207E18793F707F8139787013E
:10062000618783C7D18193F7F70FE207E187D98FFD
:10063000139787016187B70700501377F70FB8B397
:1006400011A0010075A0B707005083C7670313F717
:10065000F70FB7070050134747001377F70F238BA7
:10066000E702B707005083C7670393F7F70FE20766
:10067000E187F19BE207E18793E727001397870162
:100680006187B70700501377F70F238BE702938733
:100690000182A3800700B1A8B707005083C7E70312
:1006A00013F7F70FB7070050134747001377F70FFB
:1006B000238FE702B707005083C7E70393F7F70FCD
:1006C000E207E187F19BE207E18793E727001397B1
:1006D00087016187B70700501377F70F238FE70271
:1006E00093870182A381070029A001006F00901465
:1006F00001006F0030148347A4FE93F7F70389C706
:100700000947638FE714A9A4B70700509C47231635
:10071000F4FE8347A4FE93F707046387072283C789
:10072000518193F7F70F93F70706638B0710239D0B
:10073000018083C7418113F7F70F9307000263110C
:10074000F710B707002003C7470A2388E182B707DD
:1007500000209387470A98339387018398B3B7079C
:1007600000209387470AB82393870183B8A3B7076C
:1007700000209387470AB83393870183B8B3B7073C
:1007800000209387470AD82393870183D8A3B7070C
:1007900000209387470AD83393870183D8B3B707DC
:1007A00000209387470AF82393870183F8A3938750
:1007B00001837947F8B3B707002083C7470A23228C
:1007C000F4FEB70700209387470A9C33A20703274C
:1007D00044FEBA972322F4FEB70700209387470A06
:1007E000BC23C207032744FEBA972322F4FEB707AF
:1007F00000209387470ABC33E207032744FEBA97D9
:100800002322F4FEB70700503707002013074716CE
:1008100098CFB707005083C7B70313F7F70FB70791
:100820000050719B1377F70FA38DE7023707005035
:10083000B70700500347B7031377F70FA38DE702FD
:1008400083D7A181C207C18363900710B707005007
:1008500023980702B707005011472389E702EDA04C
:10086000B707005083C7B70313F7F70FB707005058
:10087000134747001377F70FA38DE702B707005020
:10088000984783D78182C207C183BE8642074183CE
:100890008606938741D0B6979AA383D78182C207F1
:1008A000C18385071397070141832394E18283D78E
:1008B0008182C207C18313976700B707002093871F
:1008C00047163E97B707005098CF83D7818213977A
:1008D00007014183BD4763FBE70023940182B7070B
:1008E0000050370700201307471698CF83D7C182DF
:1008F000C207C18385071397070141832396E182CD
:1009000083D7C182139707014183B54763F1E70499
:10091000B707005083C7B70313F7F70FB7070050A7
:10092000719B1377F70FA38DE702B707005083C7BA
:10093000B70313F7F70FB7070050136727001377B4
:10094000F70FA38DE70221A001006F00A06E010048
:100950006F00406EB707005019472389E702B707B9
:1009600000501947A389E702B70700209387470A79
:100970009823A38AE180B70700209387470A98331A
:10098000238AE180B70700209387470AF823FC33C6
:10099000A207D98F139707014183239DE180B707F1
:1009A00000209387470AB823BC33A207D98F139737
:1009B00007014183239BE180B70700209387470A03
:1009C000D823DC33A207D98F139707014183239CD7
:1009D000E180231604FEA30704FE83C7518193F729
:1009E000F70F93F70706E9C783C7518193F7F70F0E
:1009F00093F70702A1CB83C7418193F7F70F130742
:100A000010026384E702130710026347F70013071D
:100A100000026384E70415A0130720026381E70442
:100A200013073002638FE70209A81387018323A805
:100A3000E1809D472316F4FE35A0FD57A307F4FE81
:100A400001000DA083C7518193F7F70F93F70704B7
:100A500091EBFD57A307F4FE31A0010021A0010096
:100A600011A0010083D7A181139707014183930748
:100A7000F00363E7E70083D7A181C207C18319A010
:100A8000930700042316F4FE83A701810357C4FED5
:100A90003A86BE85B70700201385470AEF00D07954
:100AA00003A701818357C4FE3E9723A8E180D1A903
:100AB00083C7418193F7F70F2D476367F74A139771
:100AC000270089679387074CBA979C43828783D70F
:100AD0006181C207C183A183C207C18393F7F70F66
:100AE00009476383E7020D476389E7040547639A73
:100AF000E70C09671307074F23A8E180896783C7BD
:100B0000074F2316F4FED1A009671307475023A807
:100B1000E180896793874750BC231397070141837E
:100B2000896793874750BC33C207C183A207C207B6
:100B3000C183BA972316F4FE49A883D76181C207FF
:100B4000C18393F7F70F05476387E70205476344BF
:100B5000F70089CB95A00947638AE7020D476382B6
:100B6000E70499A81387C18023A8E18083C7C180C7
:100B70002316F4FEB1A009671307875423A8E18068
:100B8000896783C787542316F4FE1DA809671307D6
:100B9000875523A8E180896783C787552316F4FE0C
:100BA00005A009671307075723A8E180896783C752
:100BB00007572316F4FE29A0FD57A307F4FE0100F2
:100BC00029A0FD57A307F4FE010083D7A181C20726
:100BD000C1830357C4FE6376F7000357C4FE239D09
:100BE000E18083D7A1811397070141839307F00325
:100BF00063E7E70083D7A181C207C18319A09307E8
:100C000000042316F4FE83A701810357C4FE3A862D
:100C1000BE85B70700201385470AEF00F06103A7E0
:100C200001818357C4FE3E9723A8E18099AE83D704
:100C30006181C207C18313F7F70FA38EE18091A6EC
:100C400083C7C18113F7F70FB70700202382E70A94
:100C500083D7A181139707014183854763FCE73060
:100C60000547239DE18039A683D76181C207C183EF
:100C700013F7F70F238EE1800547A38FE18011A6BC
:100C800083C7518193F7F70FFD8B85E783D7618188
:100C9000C207C18313F7F70F8547631FF72C83C77C
:100CA000E18193F7F70FF99B13F7F70F238FE1809B
:100CB000E1A483C7518193F7F70F13F7F701894731
:100CC0006315F70683D76181C207C18393F7F70FD6
:100CD000A9EB83D78181C207C18393F7F70F13076D
:100CE0001008638AE700130730086381E7020947A9
:100CF0006389E70015A0B70700500947238BE70277
:100D00000DA8B7070050A38D070225A0B707005014
:100D10000947238FE70231A8FD57A307F4FE01001E
:100D200009A8FD57A307F4FE81ACFD57A307F4FE05
:100D3000A1A499A483C7518193F7F70FFD8BA1E775
:100D400083D76181C207C18313F7F70F8547631803
:100D5000F702896793874750FC3393F7070281CFE7
:100D600083C7E18193F7F70F93E7170013F7F70FA6
:100D7000238FE18039A4FD57A307F4FE19A4FD5782
:100D8000A307F4FEFDAA83C7518193F7F70F13F76A
:100D9000F70189476311F70A83D76181C207C183CD
:100DA00093F7F70FC9E783D78181C207C18393F710
:100DB000F70F13071008638AE700130730086384EE
:100DC000E70409476382E702B1A8B707005083C769
:100DD000670313F7F70FB707005013673700137750
:100DE000F70F238BE702A1A8B707005083C7B7030B
:100DF00013F7F70FB7070050136737001377F70F94
:100E0000A38DE7022DA8B707005083C7E70313F7A8
:100E1000F70FB7070050136737001377F70F238FCB
:100E2000E70231A8FD57A307F4FE010009A8FD570A
:100E3000A307F4FEB9A2FD57A307F4FE99A291A25D
:100E4000B70700202382070A83D7A18113970701E0
:100E50004183854763F4E7120547239DE18039AA62
:100E6000B70700202382070AB70700209387470AA5
:100E7000A380070083C7518193F7F70FFD8B89EF9C
:100E800083C7E18193F7F70F858BF9C3B70700207C
:100E900009472382E70A6DA883C7518193F7F70FAB
:100EA00013F7F7018947631CF70883D78181C207CD
:100EB000C18393F7F70F13071008638AE70013073E
:100EC00030086388E70409476384E702A5A0B707F1
:100ED000005083C7670393F7F70F13F737008D4769
:100EE0006313F706B707002005472382E70AA1A886
:100EF000B707005083C7B70393F7F70F13F737000F
:100F00008D476314F704B707002005472382E70ADB
:100F10002DA8B707005083C7E70393F7F70F13F720
:100F200037008D476315F702B70700200547238276
:100F3000E70A31A8FD57A307F4FE010011A8FD57E9
:100F4000A307F4FE31A0010021A0010011A00100BF
:100F500083D7A181139707014183894763F2E70291
:100F60000947239DE18029A8FD57A307F4FE11A896
:100F7000010001A8010031A0010021A0010011A081
:100F800001000347F4FE9307F00F631DF700B70756
:100F900000501D472389E702B70700501D47A3896A
:100FA000E70241A883C7518193F7F70FE207E18772
:100FB00063DD070483D7A18113970701418393075A
:100FC000000463E7E70083D7A181C207C18319A0AA
:100FD000930700042316F4FE83D7A181139707011A
:100FE00041838357C4FEB307F7401397070141833A
:100FF000239DE180B70700500357C4FE9ABBB70793
:10100000005011472389E7022DA083D7A181C20791
:10101000C18399EBB707005023980702B707005028
:1010200011472389E70231A0B70700501147A38970
:10103000E7020100B70700500947F8A371A08347F2
:10104000B4FE858B85C7238E0180A38E0180238FFC
:101050000180A38F0180B7070050A3810700EFF044
:10106000EF90B70700500547F8A3B9A88347B4FE2F
:10107000918BB1C7B70700501147F8A32945EF007E
:101080005004B7070050DC3393F7F70F918B91CFE3
:1010900083C7E18193F7F70F93E7270013F7F70F63
:1010A000238FE18083C7E18105A083C7E18193F7A6
:1010B000F70FF59B13F7F70F238FE18031A0B707E8
:1010C00000500347B4FEF8A30100724405617300A9
:1010D0002030011106CE22CC0010EFF06F820545C2
:1010E000EFF04F942394018223950182239601828D
:1010F000232604FE31A80327C4FE0607938741D0A8
:10110000BA97239007008327C4FE85072326F4FEA1
:101110000327C4FEBD47E3D0E7FE0100F24062446E
:1011200005618280130101DB232611222324812201
:10113000001C232EA4DC4CC010C454C418C85CC8C6
:10114000232C0401232E1401930704029117232654
:10115000F4DE0327C4DE930704DFBA860326C4DD6A
:10116000930500203E85EF00101F930704DF3E85A6
:10117000EF00B017AA87139707014183930704DF95
:10118000BA853E85092801008320C12203248122DB
:10119000130101258280797106D622D40018232EEE
:1011A000A4FCAE87231DF4FC231704FE0DA0835777
:1011B000E4FE0327C4FDBA97854613060004BE85E6
:1011C0000D45EFF0AF91930700042317F4FE83570A
:1011D000E4FE1387F7038357A4FDE34AF7FC835724
:1011E000A4FD93F7F703C207C18395C38357E4FEB9
:1011F0000327C4FD3E978357A4FD93F7F703C20767
:10120000C18385463E86BA850D45EFF02F8D835705
:10121000E4FE0327C4FDBA9785460146BE850D4509
:10122000EFF0CF8B0100B250225445618280411112
:1012300022C6000801A0411122C6000801A0011128
:1012400006CE22CC0010232204FE232404FE2326F3
:1012500004FE85454145C52389672312F4FEC14735
:101260002326F4FE8D472324F4FE930744FEBE8517
:101270003715014071240100F2406244056182800B
:10128000011106CE22CC0010A30704FEC52B913518
:101290001305803E4D2D65379307800C2324F4FE03
:1012A000832584FE89671385074BAD3D8347F4FE94
:1012B00091E78547A307F4FE854721A0A30704FE15
:1012C00081473E8689653715014059291305803EBF
:1012D0009D2DF9B7411106C622C40008B717024078
:1012E0009843B71702401367170098C3B717024017
:1012F000D443B71702403707FFF0758FD8C3B7172D
:1013000002409443B71702403707F7FE7D17758FE9
:1013100098C3B71702409443B71702403707FCFF42
:101320007D17758F98C3B7170240D443B717024093
:10133000370701FF7D17758FD8C3B71702403707EE
:101340009F0098C731200100B240224441018280B1
:10135000411106C622C4000831200100B2402244D7
:1013600041018280011122CE0010232604FE232495
:1013700004FEB71702409443B71702404167558FE8
:1013800098C3B71702409843B7070200F98F232488
:10139000F4FE8327C4FE85072326F4FE832784FEFC
:1013A00091E70327C4FE8567E31DF7FCB7170240EA
:1013B0009843B7070200F98F89C785472324F4FEB5
:1013C00019A0232404FE032784FE85476312F70A2D
:1013D00037170240B71702405843D8C337170240A7
:1013E000B71702405843D8C3B7170240D843B717BE
:1013F000024013670740D8C3B7170240D443B7175A
:1014000002403707C1FF7D17758FD8C3B717024059
:10141000D443B717024037072900558FD8C3B717F1
:1014200002409443B717024037070001558F98C315
:101430000100B71702409843B7070002F98FF5DBA8
:10144000B7170240D843B7170240719BD8C3B717EC
:101450000240D843B717024013672700D8C30100E2
:10146000B7170240DC4313F7C700A147E31AF7FEA2
:10147000010072440561828001A097F1FF1F9381F2
:10148000613E174100201301E1B717150000130555
:10149000A51397F5FF1F9385E5B61386018163FABF
:1014A000C5008322050023A0550011059105E3EA3C
:1014B000C5FE13850181938581D26377B500232012
:1014C00005001105E36DB5FEFD42739002BC8D422F
:1014D00073904280930280087390023097F2FFFF6E
:1014E000938282B293E2320073905230EFF09FDE2B
:1014F00097020000938202D9739012347300203057
:10150000397122DE80002326A4FC2324B4FC232688
:1015100004FE232004FE232404FE232E04FC2322A5
:1015200004FE232C04FC832784FC9C47BD8B2326CC
:10153000F4FE832784FC9C47C18B89CB832784FCE2
:10154000DC430327C4FED98F2326F4FEB7270240CD
:10155000938707039843B707000FF98F81E7054783
:10156000238CE1820327C4FCB7170140631FF700F7
:1015700083C7818399CB832784FC9E23B5831397EC
:1015800007014183832784FC9AA3832784FC9E233D
:1015900093F7F70FE9CF8327C4FC9C432322F4FE83
:1015A000232404FE5DA8832784FE0547B317F700B4
:1015B000232EF4FC832784FC9E233E878327C4FDCF
:1015C000F98F2320F4FE032704FE8327C4FD631153
:1015D000F708832784FE8A07232EF4FC8327C4FDA3
:1015E0003D47B317F700232CF4FC832784FD93C7F2
:1015F000F7FF032744FEF98F2322F4FE8327C4FD5F
:101600000327C4FEB317F700032744FED98F232214
:10161000F4FE832784FC984793078002631BF7003E
:10162000832784FE05473317F7008327C4FCD8CBF4
:1016300005A0832784FC984793078004631AF7006A
:10164000832784FE05473317F7008327C4FC98CB14
:10165000832784FE85072324F4FE032784FE9D4709
:10166000E3F3E7F48327C4FC032744FE98C38327EE
:1016700084FC9A239307F00F63F0E70E8327C4FCE2
:10168000DC432322F4FE232404FE6DA8832784FE7A
:10169000A1070547B317F700232EF4FC832784FC2A
:1016A0009E233E878327C4FDF98F2320F4FE032762
:1016B00004FE8327C4FD6312F708832784FE8A078C
:1016C000232EF4FC8327C4FD3D47B317F700232CDA
:1016D000F4FC832784FD93C7F7FF032744FEF98FAB
:1016E0002322F4FE8327C4FD0327C4FEB317F700AB
:1016F000032744FED98F2322F4FE832784FC9847D6
:1017000093078002631BF700832784FEA107054728
:101710003317F7008327C4FCD8CB832784FC984772
:1017200093078004631BF700832784FEA107054706
:101730003317F7008327C4FC98CB832784FE8507E3
:101740002324F4FE032784FE9D47E3F1E7F4832777
:10175000C4FC032744FED8C3010072542161828077
:10176000011122CE00102326A4FEAE872322C4FE40
:101770002315F4FE0327C4FEB7170140631AF700D0
:1017800083C7818391C78357A4FEB5832315F4FED5
:10179000832744FE99C70357A4FE8327C4FE98CB32
:1017A00031A00357A4FE8327C4FED8CB01007244A6
:1017B00005618280011122CE00102326A4FEB717F6
:1017C0000240D443B7170240370740FF7D17758F9B
:1017D000D8C3B7170240D4438327C4FE13976701C9
:1017E000B7170240558FD8C301007244056182804B
:1017F000011122CE00102326A4FE2324B4FE832749
:1018000084FE99CBB7170240D44BB7170240032789
:10181000C4FE558FD8CB21A8B7170240D44B8327DD
:10182000C4FE13C7F7FFB7170240758FD8CB01006E
:10183000724405618280011122CE00102326A4FE8D
:101840002324B4FE832784FE99CBB7170240944F1C
:10185000B71702400327C4FE558F98CF21A8B717AA
:101860000240944F8327C4FE13C7F7FFB717024007
:10187000758F98CF0100724405618280411122C6A4
:101880000008B707002003A70706B7177A00938759
:101890000720B357F70213F7F70FA38CE18283C732
:1018A00091831397070141839307803EB307F702A3
:1018B000139707014183239DE182010032444101D6
:1018C0008280797122D60018232EA4FC37F700E01D
:1018D000544337F700E0F99A54C303C79183BA869B
:1018E0000327C4FD3307D7022326E4FE37F700E0C1
:1018F0008326C4FEB68701481CCB232A0701B7F70D
:1019000000E09843B7F700E01367070198C3B7F703
:1019100000E09843B7F700E01367170298C301008F
:10192000B7F700E0DC4313F717008547E31AF7FE2B
:10193000B7F700E09843B7F700E0799B98C3010040
:10194000325445618280797122D60018232EA4FC7E
:1019500037F700E0544337F700E0F99A54C303D750
:10196000A183BA860327C4FD3307D7022326E4FEEA
:1019700037F700E08326C4FEB68701481CCB232A34
:101980000701B7F700E09843B7F700E013670701D6
:1019900098C3B7F700E09843B7F700E01367170262
:1019A00098C30100B7F700E0DC4313F71700854741
:1019B000E31AF7FEB7F700E09843B7F700E0799B2A
:1019C00098C30100325445618280011122CE00107B
:1019D0002326A4FEB707002003A747068327C4FEDB
:1019E0003E97938781D2636FF700B707002003A764
:1019F00047068327C4FE3E97B7570020938707808A
:101A000063F4E700FD572DA0B707002003A74706A2
:101A10008327C4FE3E97B707002023A2E706B70737
:101A2000002003A747068327C4FEB307F040BA97F8
:101A30003E85724405618280B3C7A5008D8B330754
:101A4000C50081E78D4763EDC700AA87637EE5087F
:101A5000942185078505A38FD7FEE3EBE7FE8280FF
:101A600093763500AA8789CA942185078505A38FB7
:101A7000D7FE93F63700C5BF9376C7FF138606FEE1
:101A800063F0C70683A3050083A2450083AF8500EA
:101A900003AFC50083AE050103AE450103A3850175
:101AA00083A8C5019385450223A0770003A8C5FF3D
:101AB00023A2570023A4F70123A6E70123A8D701F7
:101AC00023AAC70123AC670023AE170193874702FF
:101AD00023AE07FF75B790419107910523AEC7FE6E
:101AE000E3EBD7FEE3E6E7F68280AA87850703C724
:101AF000F7FF6DFF3385A7407D1582801971A2DC49
:101B000086DEA6DA3284635B06009307B0081CC148
:101B10007D55F6506654D654096182803686930608
:101B200080202EC42ECCF482814519C09305F4FF89
:101B3000FD572EC82ECEBA862C00FC83AA84112213
:101B4000FD576355F5009307B0089CC079D0A247B4
:101B5000238007007DBF938781803687B2862E86DB
:101B6000AA85884361BF01114AC803A9850022CC18
:101B700052C45AC006CE26CA4EC656C22E84328BD6
:101B8000368A63E72609DE2513F7074841C3044078
:101B90008C495848AA8AB389B4408D44B384E4027E
:101BA0000947B3C4E402138716004E9763F3E400B9
:101BB000BA8493F70740A5CFA6855685512F2A8969
:101BC0001DE1B14723A0FA005E247D5593E7070489
:101BD0005EA4F2406244D2444249B249224A924A47
:101BE000024B056182800C484E86B9355E2493F71E
:101BF000F7B793E707085EA42328240144C84E9949
:101C0000B38434412320240104C4528963732A011C
:101C1000528908404A86DA85B9251C440145B387B4
:101C200027411CC41C403E99232024015DB7268611
:101C30005685EF00C07E2A8961F10C485685BD2586
:101C400049B7DE25717126D34AD14ECF06D722D5AA
:101C500052CD56CB5AC95EC762C566C393F7070813
:101C6000AA892E89B284B1C39C49A1E393050004DB
:101C700036C6F92D2320A9002328A900B24615E174
:101C8000B14723A0F9007D55BA502A549A540A59F5
:101C9000FA496A4ADA4A4A4BBA4B2A4C9A4C4D6185
:101CA000828093070004232AF90093070002A30C03
:101CB000F1029307000302DA230DF10236CE930BF3
:101CC0005002971A0000938A6A8C054C294B26848F
:101CD0001C2099C363977709B30C9440638D0C0063
:101CE000E6862686CA854E85BD3DFD576308F518F4
:101CF000D256E69636DA1C2063820718FD57930405
:101D0000140002D002D63ED202D4A301010682DC26
:101D10008C2015465685252B13841400825721E507
:101D200013F7070109C713070002A301E10613F720
:101D3000870009C71307B002A301E1069420130727
:101D4000A002638AE602B2572684814625461820FF
:101D500093051400130707FD6372E6068DC63ED691
:101D60001DA00504B5B7330555413315AC00C98F27
:101D70003ED0A28471BF724793064700184336CE07
:101D8000634707023AD618209307E002631DF70461
:101D900018309307A002631BF702F2470904138768
:101DA00047009C433ACE63C107023ED22DA83307B9
:101DB000E04093E727003AD63ED0F1B7B3876703F8
:101DC00085462E84BA9761B7FD57C5B7050402D280
:101DD000814681472546182093051400130707FD07
:101DE0006374E606F9F20C200D4617050000130592
:101DF000657AB12911CD970700009387A7791D8DCA
:101E000093070004B397A700025505045D8D2AD0FF
:101E10000C201946170500001305057893041400DB
:101E2000230CB1022D2125C597E7FFFF9387871D5E
:101E300095E70257F2471377071009CF91073ECE77
:101E4000D257D2973EDA61B5B387670385462E84B1
:101E5000BA9751B79D07E19BA107D5B778089706B8
:101E60000000938686D04A860C104E8597000000AD
:101E7000E7000000FD572A8AE314F5FC8357C900E8
:101E80007D5593F70704E39107E05255F5BB7808B9
:101E900097060000938666CD4A860C104E85012A6F
:101EA000D1BF797156CA9C49BA8A984522D426D2A4
:101EB0004ECE52CC06D64AD05AC85EC6AA892E84C7
:101EC000B284368A63D3E700BA879CC003473404E0
:101ED00019C385079CC01C4093F7070281C79C402B
:101EE00089079CC00329040013796900631A09005B
:101EF000130B9401FD5B5C449840998F634CF9048B
:101F00001C408346340493F70702B336D000A5EB98
:101F100013063404D2854E85829AFD576303F50477
:101F20001C4011469840998B544481446397C700E4
:101F3000B384E64063D3040081441C4418486354CE
:101F4000F700998FBE94014969047D5B639824056D
:101F5000014509A885465A86D2854E85829A631E18
:101F600075017D55B250225492540259F249624A89
:101F7000D24A424BB24B456182800509ADBF33075F
:101F8000D40013060003A301C70403475404938736
:101F90001600A2978906A381E7049DBF8546228685
:101FA000D2854E85829AE30E65FB050945B77971A6
:101FB00022D426D24AD04ECE06D652CC56CA5AC8C1
:101FC000B689942D930790063289AA842E841386AD
:101FD0003504638DF60263E2D706930780056385B7
:101FE000F61863EDD700638D062093073004638EE7
:101FF000F60A930A24042301D404C9A093073006E7
:102000006385F60A93074006E395F6FE1C400843F5
:1020100093F6070893054500C5C61C410CC363D859
:1020200007001307D002B307F040A301E4049706AA
:1020300000009386E656294765A893070007638149
:10204000F61663E5D7029307E0066388F618930750
:10205000F006E390F6FA0C401C4313F805081385CC
:1020600047006307080608C39C4385A893075007E9
:10207000E383F6FE930780076388F6129307300721
:10208000E399F6F61C43D04181459386470014C37B
:1020900083AA07005685652A01C53305554148C006
:1020A0005C401CC8A301040461A81C43930A2404D7
:1020B000938647009C4314C32301F4048547D5B796
:1020C00093F607041C410CC3B9DAC207C18781BF6C
:1020D00093F5050408C3C9D99E231307F006638648
:1020E000E60E970600009386A64B2947A301040439
:1020F0004C400CC463C5050008406D9908C099E3C5
:10210000B28A89CDB28AB3F5E702FD1AB6958C2161
:102110002380BA00B3D5E70263FFE70AA147631E35
:10212000F7001C40858B91CB58401C4863C7E700E3
:1021300093070003A38FFAFEFD1A3306564110C819
:102140004E87CA867000A2852685A13B7D5A631DF5
:10215000450B7D55B250225492540259F249624ABD
:10216000D24A424B45618280A382D5049706000083
:10217000938606430C40084313F805081C411105DB
:10218000630D080208C313F7150001C793E50502A4
:102190000CC04147A1FF0C4093F5F5FD0CC0B9B749
:1021A0009C4193E707029CC193078007A302F404B4
:1021B000970600009386064075BF13F8050408C310
:1021C000E30308FCC207C1837DBF97060000938626
:1021D000263D214721BFAE873DB794411C43CC49E2
:1021E00013F80608138547006306080008C39C43DC
:1021F0008CC339A008C393F606049C43F5DA8EA37A
:1022000023280400B28A2DBF14485686CA85268525
:102210008299E30045F51C40898B8DE7B24748441D
:10222000E35AF5F23E853DB785465686CA85268532
:102230008299E30065F3050A5C443247998FE345D0
:10224000FAFEE9BF014A930A94017D5BF5B793F565
:10225000F50F2A966314C500014582801C21E38E88
:10226000B7FE0505C5BF63F1A504B386C500637D50
:10227000D5029345F6FF8147FD176393F5008280F1
:102280003387F600034807003387C7002A972300E7
:102290000701DDB73387F50014233307F500850701
:1022A00014A3E319F6FE82808147E5BFCDC183A761
:1022B000C5FF411122C406C626C21384C5FF63D3DD
:1022C00007003E94AA84C92A9387C1839C4399EB53
:1022D0002322040023AE81822244B2402685924408
:1022E000410165AA637EF40014403307D40063966D
:1022F000E7009843DC43369718C05CC0E1BFBA875B
:10230000D84319C3E37DE4FE94433386D700631FAB
:1023100086001040B29694C33386D700E31EC7FAF6
:1023200010435843B29694C3D8C37DB76375C400B5
:10233000B1479CC055B71040B306C4006316D70020
:1023400014435843B29614C058C0C0C371B78280BA
:10235000011126CA93843500F19806CE22CC4AC8D2
:102360004EC6A104B14763F1F404B14463E0B40480
:102370002A891D229387C18398433A8431E0938749
:1023800001849C4391E781454A85D52023A0A184FF
:10239000A6854A85E928FD5963173507B1472320EB
:1023A000F9004A85DD2829A0E3D204FCB1471CC10D
:1023B0000145F2406244D2444249B24905618280FB
:1023C0001C40858F63CE0702AD4663F6F6001CC045
:1023D0003E9404C031A05C406312870223AEF182B8
:1023E0004A8565281305B4009307440061993307B3
:1023F000F54061D33A94898F1CC065BF5CC3CDB7EB
:1024000022874040A5BF130435007198E30385FC83
:10241000B305A4404A85A128E31D35FB41B799E1E6
:10242000B2853DB7011122CC06CE26CA4AC84EC697
:10243000328419EAA53D0149F24062444A85D244FA
:102440004249B24905618280AE84AA8981282689E1
:10245000E37485FEA2854E85E53D2A8971DDA6855A
:102460002286EFF06FDDA6854E858935F1B74111E3
:1024700022C42A842E8523A201D206C6EFF0EFD40F
:10248000FD576317F500938741D29C4391C31CC04D
:10249000B2402244410182808280828083A7C5FFAE
:1024A0001385C7FF63D50700AA959C413E9582809E
:1024B00068656C6C6F206364632025640A0000000B
:1024C000600E0000800C0000680F0000340D00005A
:1024D000680F00002E0C0000CE0A0000680F0000FC
:1024E000400C0000680C0000400E0000700F00005F
:1024F0001201100102000040861A0CFE01000102C8
:1025000000010000090243000201008032090400BA
:102510000001020201000524001001052401000150
:10252000042402020524060001070581034000017E
:1025300009040100020A0000000705020240000031
:1025400007058302400000000E0377006300680067
:102550002E0063006E000000160355005300420079
:102560002000530065007200690061006C000000EB
:1025700016033000310032003300340035003600DD
:102580003700380039000000232D302B20000000D8
:10259000686C4C0065666745464700003031323351
:1025A000343536373839414243444546000000004F
:1025B00030313233343536373839616263646566B9
:0425C0000000000017
:1025C4000000000000000000000000000000000007
:1025D40000000000000000000000000000000000F7
:1025E40000000000000000000000000000000000E7
:1025F40000000000000000000000000000000000D7
:1026040000000000000000000000000000000000C6
:1026140000000000000000000000000000000000B6
:1026240000D8B80588050020000000200403090430
:00000001FF
