:040000006F10502607
:10000400000000000000000028170000E6170000B0
:1000140000000000621A0000000000000000000060
:10002400621A0000621A00000000000000000000D4
:10003400621A000000000000621A000000000000C4
:10004400621A0000621A0000621A0000621A0000BC
:10005400621A0000621A0000621A0000621A0000AC
:10006400621A0000621A0000621A0000621A00009C
:10007400621A0000621A0000621A0000621A00008C
:10008400621A0000621A0000621A0000621A00007C
:10009400621A0000621A0000621A0000621A00006C
:1000A400621A0000621A0000621A0000621A00005C
:1000B40030170000621A0000621A0000621A000081
:1000C400621A0000621A0000621A0000621A00003C
:1000D400621A0000621A0000621A0000621A00002C
:1000E400621A0000621A0000621A0000E0040000B4
:0C00F400621A0000621A0000621A00008C
:10010000411106C622C40008B707002003A7070153
:10011000B7479508938707406316F7000945EF1026
:10012000307025A8B707002003A70701B7E7B80577
:10013000938707806316F7000545EF10706E31A8AE
:10014000B707002003A70701B777DC02938707C032
:100150006315F7000145EF10B06C85450565EF208C
:1001600060140100B240224441018280011122CE7C
:100170000010B707005013070004D8A7B7070050B6
:1001800013078004D8B7B7070050370700201307BC
:10019000870498CBB707005013878187D8CBB70760
:1001A0000050370700201307871098CFB70700507B
:1001B0001387818BD8CFB7070050A3890702B707F1
:1001C0000050A38D0702B7070050239A0702B70714
:1001D0000050239E0702B707005009472389E70212
:1001E000B70700500947238BE702B70700500947BC
:1001F000238FE702A30704FE29A80347F4FE938791
:100200000182BA97238007008347F4FE8507A3077E
:10021000F4FE0347F4FE9D47E3F1E7FE010072445C
:1002200005618280797106D622D40018232EA4FCA1
:100230008327C4FDA5C3B7070050194798A32945D4
:10024000EF20A041B707005023800700B7070050F8
:100250001D47B8A3B70700501307900298A339377A
:10026000B7070050130710F898B39307B00323267D
:10027000F4FE8327C4FEFD8B0547B316F70037E76E
:1002800000E08327C4FE9583938707048A07BA9703
:1002900094C381A0B7070050194798A32945EF20C0
:1002A000C03BB7070050238007009307B003232407
:1002B000F4FE832784FEFD8B0547B316F70037E76E
:1002C00000E0832784FE9583938707068A07BA9701
:1002D00094C30100B250225445618280797106D6E0
:1002E00022D40018AA87232CB4FC3687A30FF4FC71
:1002F000B287231EF4FCBA87230FF4FC8347F4FD76
:100300006387071C0347F4FD9D4763E2E71C03472F
:10031000F4FD93870182BA979C2393F7F70F6396B6
:10032000071A0347F4FD85476307F7000347F4FD09
:1003300091476313F702B7070050B1079C23A30747
:10034000F4FE0347F4FD85476314F7088347F4FE82
:100350009183A307F4FEADA80347F4FD8947630723
:10036000F7000347F4FD8D476313F702B70700500A
:10037000B5079C23A307F4FE0347F4FD8D476319DB
:10038000F7048347F4FE9183A307F4FE91A003478B
:10039000F4FD95476307F7000347F4FD994763139E
:1003A000F702B7070050B9079C23A307F4FE0347E1
:1003B000F4FD9947631EF7008347F4FE9183A3077A
:1003C000F4FE39A0B7070050BD079C23A307F4FE35
:1003D0008347F4FE918B638E070E8347F4FEA18B57
:1003E00091C7930700042307F4FE19A0230704FE16
:1003F0008347E4FEA1EB8347E4FD85E3832784FD87
:1004000093960701C1820347F4FDB70700149107D3
:10041000BA978A07368798C3A9A80347F4FDB70798
:1004200000149107BA978A079843B7070020BA9734
:100430003E878357C4FD3E86832584FD3A85EF20A1
:10044000403205A80347E4FE8346F4FDB7070014D5
:100450009107B6978A079C433E97B7070020BA9743
:100460003E878357C4FD3E86832584FD3A85EF2071
:10047000402F0347F4FD93870182BA97054798A35D
:100480000347F4FDB7070014B107BA978A073E8700
:100490008357C4FD1EA38347F4FD13972700B707B6
:1004A000005093872703BA979C2393F7F70F0347CE
:1004B000F4FD9316270037070050130727033697DC
:1004C000F19B93F7F70F1CA329A0854729A0854727
:1004D00019A0010081473E85B250225445618280B7
:1004E000011122CE0010B7070050FC23A305F4FE33
:1004F000B7070050FC332305F4FE8347B4FE898B15
:10050000E38207428347A4FE93F707031307000221
:10051000638AE700130700036381E7526381071EC4
:100520006F00B03F8347A4FE93F7F7031307100251
:10053000638BE710130730026380E716130700028E
:100540006399E71A83D7A181C207C18391E7B707EF
:1005500000501147A389E70283C7518193F7F70F32
:1005600093F70706639A071883C7418193F7F70F3C
:100570001547638CE70819476395E70C83D7A1817A
:100580001397070141839307F00363E7E70083D7DD
:10059000A181C207C18319A0930700042316F4FEAA
:1005A00083A701810357C4FE3A86BE85B7070020A2
:1005B00013858704EF20E01A83D7A18113970701E1
:1005C00041838357C4FEB307F74013970701418364
:1005D000239DE18003A701818357C4FE3E9723A892
:1005E000E180B70700500357C4FE9ABBB70700501D
:1005F00083C7270313F7F70FB707005013474700C8
:100600001377F70F2389E70235A8B7070050BC33EB
:1006100093F7F70FE207E18793F707F8139787013E
:10062000618783C7D18193F7F70FE207E187D98FFD
:10063000139787016187B70700501377F70FB8B397
:1006400011A0010055A8B707005083C7670313F72F
:10065000F70FB7070050134747001377F70F238BA7
:10066000E702B707005083C7670393F7F70FE20766
:10067000E187F19BE207E18793E727001397870162
:100680006187B70700501377F70F238BE702938733
:100690000182A380070095A0B707005083C7E70336
:1006A00013F7F70FB7070050134747001377F70FFB
:1006B000238FE702B707005083C7E70393F7F70FCD
:1006C000E207E187F19BE207E18793E727001397B1
:1006D00087016187B70700501377F70F238FE70271
:1006E00093870182A3810700938781CF238A070222
:1006F00029A001006F00702201006F0010228347C3
:10070000A4FE93F7F70389C709476385E71425A675
:10071000B70700509C472316F4FE8347A4FE93F7C7
:1007200007046386073083C7518193F7F70F93F768
:10073000070663810710239D018083C7418113F75A
:10074000F70F930700026317F70EB707002003C7E0
:100750008704938781CF238DE702B7070020938713
:1007600087049833938781CFA38DE702B7070020D2
:1007700093878704B823938781CF238EE702B70737
:10078000002093878704B833938781CFA38EE70235
:10079000B707002093878704D823938781CF238FBF
:1007A000E702B707002093878704D833938781CF68
:1007B000A38FE702B707002093878704F823938766
:1007C00081CF2380E704938781CF7947A380E70413
:1007D000B707002083C787042322F4FEB707002051
:1007E000938787049C33A207032744FEBA972322EA
:1007F000F4FEB707002093878704BC23C2070327B2
:1008000044FEBA972322F4FEB7070020938787049B
:10081000BC33E207032744FEBA972322F4FE9387F2
:1008200081CFFC3313F7F70F938781CFA380E704C1
:10083000EF00706383D7A181C207C1836399071E4C
:10084000B707005023980702B707005011472389C4
:10085000E702F1AAB707005083C7B70313F7F70FF2
:10086000B7070050134747001377F70FA38DE70230
:10087000B70700509047138781CF18271377F70FDA
:10088000938781CF9C3793F7F70FA207D98FC207C1
:10089000C183BE861317060141838606938781CFE5
:1008A000B6979375F70FF427818A3686AE86D18E78
:1008B000F4A72183131607014182F837018BBA860A
:1008C0003287558FF8B7138781CF18271377F70F23
:1008D000938781CF9C3793F7F70FA207D98FC20771
:1008E000C1838507139707014183938781CF937550
:1008F000F70F9427818A3686AE86D18E94A72183FE
:100900001316070141829837018BBA863287558FBB
:1009100098B7138781CF18271377F70F938781CF65
:100920009C3793F7F70FA207D98FC207C18313979C
:100930006700938701D43E97B707005098CF13877D
:1009400081CF18271377F70F938781CF9C3793F7C1
:10095000F70FA207D98F139707014183BD4763FFA4
:10096000E700938781CF9827018B98A79837018B51
:1009700098B7B7070050138701D498CF138781CF5A
:1009800058271377F70F938781CFDC3793F7F70F4B
:10099000A207D98FC207C183850713970701418337
:1009A000938781CF9375F70FD427818A3686AE86D9
:1009B000D18ED4A72183131607014182D837018B2A
:1009C000BA863287558FD8B7138781CF58271377C8
:1009D000F70F938781CFDC3793F7F70FA207D98FF3
:1009E000139707014183B54763F6E704B707005043
:1009F00083C7B70313F7F70FB7070050719B13773F
:100A0000F70FA38DE702B707005083C7B70313F7AB
:100A1000F70FB7070050136727001377F70FA38D61
:100A2000E702938781CF0547A38CE70221A001004D
:100A30006F00A06E01006F00406EB70700501947AD
:100A40002389E702B70700501947A389E702B707D0
:100A50000020938787049823A38AE180B7070020AA
:100A6000938787049833238AE180B7070020938710
:100A70008704F823FC33A207D98F1397070141831A
:100A8000239DE180B707002093878704B823BC33F8
:100A9000A207D98F139707014183239BE180B707F2
:100AA000002093878704D823DC33A207D98F1397BC
:100AB00007014183239CE180231604FEA30704FE63
:100AC00083C7518193F7F70F93F70706E9C783C7E9
:100AD000518193F7F70F93F70702A1CB83C74181A9
:100AE00093F7F70F130710026384E702130710024E
:100AF0006347F700130700026384E70415A0130798
:100B000020026381E70413073002638FE70209A81C
:100B1000138721D323A8E1809D472316F4FE35A037
:100B2000FD57A307F4FE01000DA083C7518193F781
:100B3000F70F93F7070491EBFD57A307F4FE31A0DD
:100B4000010021A0010011A0010083D7A18113970A
:100B5000070141839307F00363E7E70083D7A1818F
:100B6000C207C18319A0930700042316F4FE83A7CC
:100B700001810357C4FE3A86BE85B707002013855E
:100B80008704EF10103E03A701818357C4FE3E97F0
:100B900023A8E180D1A983C7418193F7F70F2D479F
:100BA0006367F74A139727008D6793878783BA9700
:100BB0009C43828783D76181C207C183A183C20717
:100BC000C18393F7F70F09476383E7020D476389F2
:100BD000E7040547639AE70C0D671307878623A888
:100BE000E1808D6783C787862316F4FED1A00D6749
:100BF0001307C78723A8E1808D679387C787BC2326
:100C00001397070141838D679387C787BC33C2075A
:100C1000C183A207C207C183BA972316F4FE49A86D
:100C200083D76181C207C18393F7F70F05476387B5
:100C3000E70205476344F70089CB95A00947638A1B
:100C4000E7020D476382E70499A81387818023A8F0
:100C5000E18083C781802316F4FEB1A00D671307DE
:100C6000078C23A8E1808D6783C7078C2316F4FEC9
:100C70001DA80D671307078D23A8E1808D6783C723
:100C8000078D2316F4FE05A00D671307878E23A892
:100C9000E1808D6783C7878E2316F4FE29A0FD5758
:100CA000A307F4FE010029A0FD57A307F4FE0100ED
:100CB00083D7A181C207C1830357C4FE6376F700BF
:100CC0000357C4FE239DE18083D7A18113970701B9
:100CD00041839307F00363E7E70083D7A181C2074D
:100CE000C18319A0930700042316F4FE83A7018192
:100CF0000357C4FE3A86BE85B707002013858704D4
:100D0000EF10302603A701818357C4FE3E9723A826
:100D1000E18099AE83D76181C207C18313F7F70FD2
:100D2000A38EE18091A683C7C18113F7F70FB707A0
:100D300000202384E70483D7A1811397070141830F
:100D4000854763FCE7300547239DE18039A683D7BB
:100D50006181C207C18313F7F70F238EE180054736
:100D6000A38FE18011A683C7518193F7F70FFD8B05
:100D700085E783D76181C207C18313F7F70F8547E2
:100D8000631FF72C83C7E18193F7F70FF99B13F7E4
:100D9000F70F238FE180E1A483C7518193F7F70F09
:100DA00013F7F70189476315F70683D76181C207F7
:100DB000C18393F7F70FA9EB83D78181C207C18362
:100DC00093F7F70F13071008638AE700130730083B
:100DD0006381E70209476389E70015A0B707005060
:100DE0000947238BE7020DA8B7070050A38D070220
:100DF00025A0B70700500947238FE70231A8FD5708
:100E0000A307F4FE010009A8FD57A307F4FE81AC77
:100E1000FD57A307F4FEA1A499A483C7518193F7BA
:100E2000F70FFD8BA1E783D76181C207C18313F759
:100E3000F70F85476318F7028D679387C787FC33E1
:100E400093F7070281CF83C7E18193F7F70F93E709
:100E5000170013F7F70F238FE18039A4FD57A3077D
:100E6000F4FE19A4FD57A307F4FEFDAA83C7518120
:100E700093F7F70F13F7F70189476311F70A83D741
:100E80006181C207C18393F7F70FC9E783D78181D7
:100E9000C207C18393F7F70F13071008638AE700AF
:100EA000130730086384E70409476382E702B1A8A7
:100EB000B707005083C7670313F7F70FB707005052
:100EC000136737001377F70F238BE702A1A8B70743
:100ED000005083C7B70313F7F70FB7070050136726
:100EE00037001377F70FA38DE7022DA8B70700503F
:100EF00083C7E70313F7F70FB707005013673700EF
:100F00001377F70F238FE70231A8FD57A307F4FEED
:100F1000010009A8FD57A307F4FEB9A2FD57A307D6
:100F2000F4FE99A291A2B70700202384070483D777
:100F3000A181139707014183854763F4E7120547B1
:100F4000239DE18039AAB707002023840704B7074F
:100F5000002093878704A380070083C7518193F7FC
:100F6000F70FFD8B89EF83C7E18193F7F70F858B2F
:100F7000F9C3B707002009472384E7046DA883C796
:100F8000518193F7F70F13F7F7018947631CF708AF
:100F900083D78181C207C18393F7F70F1307100826
:100FA000638AE700130730086388E704094763840E
:100FB000E702A5A0B707005083C7670393F7F70FB1
:100FC00013F737008D476313F706B707002005476F
:100FD0002384E704A1A8B707005083C7B70393F79A
:100FE000F70F13F737008D476314F704B707002096
:100FF00005472384E7042DA8B707005083C7E703FC
:1010000093F7F70F13F737008D476315F702B7070C
:10101000002005472384E70431A8FD57A307F4FE09
:10102000010011A8FD57A307F4FE31A0010021A083
:10103000010011A0010083D7A1811397070141830B
:10104000894763F2E7020947239DE18029A8FD57FC
:10105000A307F4FE11A8010001A8010031A00100BE
:1010600021A0010011A001000347F4FE9307F00F37
:10107000631DF700B70700501D472389E702B70734
:1010800000501D47A389E70241A883C7518193F708
:10109000F70FE207E18763DD070483D7A181139788
:1010A000070141839307000463E7E70083D7A18129
:1010B000C207C18319A0930700042316F4FE83D747
:1010C000A1811397070141838357C4FEB307F740FB
:1010D000139707014183239DE180B7070050035711
:1010E000C4FE9ABBB707005011472389E7022DA021
:1010F00083D7A181C207C18399EBB707005023981A
:101100000702B707005011472389E70231A0B7074C
:1011100000501147A389E7020100B70700500947B3
:10112000F8A341A88347B4FE858B95C7238E018021
:10113000A38E0180238F0180A38F0180B707005009
:10114000A3810700EFF08F820545A124B707005067
:101150000547F8A3B9A88347B4FE918BB1C7B70779
:1011600000501147F8A32945EF10204FB707005052
:10117000DC3393F7F70F918B91CF83C7E18193F71E
:10118000F70F93E7270013F7F70F238FE18083C74B
:10119000E18105A083C7E18193F7F70FF59B13F772
:1011A000F70F238FE18031A0B70700500347B4FE4B
:1011B000F8A301007244056173002030411106C696
:1011C00022C4000885451145EF10201285453705DA
:1011D0000200EF10E01585450545EF1060158545C7
:1011E0000545EF10200C81473E85B2402244410165
:1011F0008280397106DE22DC80002326A4FCAE87C3
:101200003287A305F4FCBA872305F4FC232E04FCE3
:10121000232004FE232204FE232404FE232804FCAE
:10122000232A04FC232C04FC9145B71701401385A5
:101230000780EF00D05591472318F4FC8D47232AEF
:10124000F4FCC147232CF4FC930704FDBE85B717BB
:10125000014013850780EF00902DB747004093872A
:101260000740DE27139707014183B7470040938764
:1012700007404D9B42074183DAA7A1472318F4FC9E
:1012800093078004232CF4FC930704FDBE85B71755
:10129000014013850780EF00902991472318F4FC43
:1012A0008D47232AF4FCE147232CF4FC930704FD2B
:1012B000BE85B717014013850780EF005027E177FF
:1012C0002318F4FC8D47232AF4FCC147232CF4FC9B
:1012D000930704FDBE85B717014013850780EF0013
:1012E00010258327C4FC232EF4FC231004FE03479F
:1012F000B4FC85476316F7008D672311F4FE21A81F
:101300000347B4FC89476316F70089672311F4FE8D
:1013100019A0231104FE0347A4FC8547631AF700B4
:10132000930700602312F4FE85672310F4FE05A0E6
:101330000347A4FC8947631AF70093070040231270
:10134000F4FE85672310F4FE19A0231204FE231473
:1013500004FEB1472313F4FE9307C4FDBE85B747CF
:10136000004013850740EF10000193050004B747C4
:10137000004013850740EF1020278545B747004000
:1013800013850740EF10401A0100F25062542161AA
:101390008280797122D60018AA87A30FF4FC239CBF
:1013A00001CE938781CF23910700938781CF23922A
:1013B0000700938781CF23830700938781CF7947E5
:1013C000F8B3938781CF23940700938781CF239528
:1013D0000700938781CF23960700A30704FE31A857
:1013E0008347F4FE138781CF8607BA9723970700B8
:1013F0008347F4FE8507A307F4FE0347F4FEBD47C9
:10140000E3F0E7FE938781CF23870702938781CF9D
:1014100023980702938781CF23990702938781CF6F
:10142000238A0702938781CF239B0702938781CF6B
:10143000238C0702938781CFA38C070223A4018208
:1014400023A601828347F4FDB1C7938781CF238D03
:101450000702938781CF130720FCA38DE7029387B0
:1014600081CF0547238EE702938781CFA38E0702A2
:10147000938781CF238F0702938781CFA38F0702A2
:10148000938781CF21472380E704938781CF7947D2
:10149000A380E70401003254456182805D7186C6F5
:1014A000A2C48008AA87232CB4FA232AC4FAA30F63
:1014B000F4FA232204FC232404FC232604FC23281E
:1014C00004FC232A04FC232C04FC232E04FC2320EC
:1014D00004FE232204FE232404FE232604FE834765
:1014E000F4FBA5EBB7070240138507080925B747AA
:1014F0000040938747402322F4FC832784FB232466
:10150000F4FCC1472326F4FC832744FB2328F4FC86
:10151000232A04FC93070008232CF4FC232E04FC4C
:10152000232004FE232204FE85672324F4FE2326C1
:1015300004FE930744FCBE85B707024013850708E5
:1015400019278545B707024013850708EF00207A61
:1015500085A8B70702401385C706512BB74700403F
:10156000938747402322F4FC832784FB2324F4FC45
:10157000232604FC832744FB2328F4FC232A04FCB1
:1015800093070008232CF4FC232E04FC232004FEE4
:10159000930700022322F4FE85672324F4FE23260A
:1015A00004FE930744FCBE85B70702401385C706B7
:1015B000592D8545B70702401385C706EF002073F4
:1015C0000100B640264461618280011106CE22CC22
:1015D0000010AA872324B4FE3687A307F4FEB2873F
:1015E0002307F4FEBA87A306F4FE01469305000420
:1015F000B747004013850740EF0090788145B70753
:1016000002401385C706E5258145B70702401385CB
:101610000708F12D0347D4FE8347E4FE3A86BE85D2
:10162000032584FEF9360146938501D40145BD3575
:10163000856713860780B7170020938507950545B2
:10164000B13D054693050004B747004013850740A8
:10165000EF0010738347F4FE3E85253B0100F24006
:10166000624405618280011106CE22CC001093876E
:1016700081CF83C7D70393F7F70FE2073E8793879E
:1016800081CF83C7C70393F7F70FC207BA97232603
:10169000F4FE938781CF83C7B70393F7F70FA207B1
:1016A0003E87938781CF83C7A70393F7F70FBA9736
:1016B0000327C4FEBA972326F4FE938781CF83C7FE
:1016C000E703A305F4FE938781CF83C7F7032305C0
:1016D000F4FE0347A4FE8347B4FEBA863E86832504
:1016E000C4FE0145DD35B7070050138701D498CFFC
:1016F000B707005083C7B70313F7F70FB7070050BA
:10170000719B1377F70FA38DE70237070050B707D8
:1017100000500347B7031377F70FA38DE7020100CB
:10172000F240624405618280411122C6000801A096
:10173000411122C6000883C7018381CBB71701403E
:1017400093870780216798CB39A0B717014093870B
:1017500007802167D8CB83C7018393C7170013F78E
:10176000F70F2388E182938781CFFC2393F7F70F4C
:10177000850713F7F70F938781CFF8A3138781CFDE
:10178000034767031377F70F938781CF83C77703E7
:1017900093F7F70FA207D98FC207C1838507139765
:1017A00007014183938781CF9375F70F83C6670342
:1017B000818A3686AE86D18E238BD702218313167B
:1017C0000701418203C77703018BBA863287558FA1
:1017D000A38BE702B707004079579AAB0100324468
:1017E000410173002030411122C6000801A00111FF
:1017F00006CE22CC0010232204FE232404FE23263E
:1018000004FE85454145EF00502E89672312F4FE02
:10181000C1472326F4FE8D472324F4FE930744FE9C
:10182000BE853715014021230100F2406244056165
:101830008280011106CE22CC0010A30704FEEF0027
:10184000705DEFF0BF97EFE0BF8B0545EFE09F9D28
:101850001305803EEF00B068593F8D6793878782FC
:101860002324F4FE032584FEEF00D07AAA87C20762
:10187000C18385463E86832584FE0D45EFE01FA685
:101880008347F4FE91E78547A307F4FE854721A02F
:10189000A30704FE81473E868965371501403D2731
:1018A000854613060004B7070020938587100D4571
:1018B000EFE0DFA21305A00FEF00706265B74111E2
:1018C00006C622C40008B71702409843B717024063
:1018D0001367170098C3B7170240D443B7170240E5
:1018E0003707FFF0758FD8C3B71702409443B71777
:1018F00002403707F7FE7D17758F98C3B717024070
:101900009443B71702403707FCFF7D17758F98C3C4
:10191000B7170240D443B7170240370701FF7D17BE
:10192000758FD8C3B717024037079F0098C731207B
:101930000100B240224441018280411106C622C406
:10194000000831200100B24022444101828001118F
:1019500022CE0010232604FE232404FEB7170240E3
:101960009443B71702404167558F98C3B717024099
:101970009843B7070200F98F2324F4FE8327C4FE9F
:1019800085072326F4FE832784FE91E70327C4FE00
:101990008567E31DF7FCB71702409843B7070200BD
:1019A000F98F89C785472324F4FE19A0232404FE58
:1019B000032784FE85476312F70A37170240B717DB
:1019C00002405843D8C337170240B7170240584364
:1019D000D8C3B7170240D843B71702401367074070
:1019E000D8C3B7170240D443B71702403707C1FF27
:1019F0007D17758FD8C3B7170240D443B71702407D
:101A000037072900558FD8C3B71702409443B7173B
:101A1000024037070001558F98C30100B7170240F5
:101A20009843B7070002F98FF5DBB7170240D84398
:101A3000B7170240719BD8C3B7170240D843B717F6
:101A4000024013672700D8C30100B7170240DC43E8
:101A500013F7C700A147E31AF7FE010072440561BE
:101A6000828001A097F1FF1F9381C1DA1731002016
:101A700013014159171500001305C5E897E5FF1F2D
:101A8000938545581386018163FAC50083220500BA
:101A900023A0550011059105E3EAC5FE13850181D8
:101AA00097F5FF1F9385056B6377B500232005002D
:101AB0001105E36DB5FEFD42739002BC8D4273903B
:101AC0004280930280087390023097E2FFFF938276
:101AD000A25393E2320073905230EFF05FDE970230
:101AE0000000938242D573901234730020300111AC
:101AF00022CE00102326A4FE8327C4FE9843C1678C
:101B0000F9177D8F8327C4FE98C38327C4FE23A0C3
:101B100007008327C4FE23A207008327C4FE23A453
:101B200007008327C4FE23A607000327C4FEB707C8
:101B30000240A107631BF700B7070240D843B7076D
:101B400002401367F700D8C3DDA80327C4FEB70718
:101B50000240F107631BF700B7070240D843B707FD
:101B600002401367070FD8C3D9A80327C4FEB707DD
:101B7000024093870703631DF700B7070240D44371
:101B8000B70702400567130707F0558FD8C345A86C
:101B90000327C4FEB707024093874704631BF7007F
:101BA000B7070240D443B70702403D67558FD8C3FB
:101BB00079A00327C4FEB707024093878705631CFB
:101BC000F700B7070240D443B707024037070F00BA
:101BD000558FD8C3ADA00327C4FEB7070240938733
:101BE000C706631CF700B7070240D443B70702409B
:101BF0003707F000558FD8C399A00327C4FEB70755
:101C0000024093870708631CF700B7070240D443DC
:101C1000B70702403707000F558FD8C30DA0032721
:101C2000C4FEB707024093874709631AF700B70756
:101C30000240D843B70702401367F700D8C301003A
:101C4000724405618280797122D60018232EA4FC8B
:101C5000232CB4FC232604FE8327C4FD9C432326A7
:101C6000F4FE0327C4FEE177BD07F98F2326F4FEB7
:101C7000832784FD9847832784FD9C535D8F8327AA
:101C800084FD9C4B5D8F832784FDDC4B5D8F832718
:101C900084FD9C4F5D8F832784FDDC4F5D8F832700
:101CA00084FDDC535D8F832784FD9C57D98F0327E8
:101CB000C4FED98F2326F4FE8327C4FD0327C4FE68
:101CC00098C3832784FDD8478327C4FDD8C38327BF
:101CD00084FD98438327C4FD98C7832784FDD84398
:101CE0008327C4FDD8C701003254456182800111A9
:101CF00022CE00102326A4FE2324B4FE832784FED4
:101D000091CB8327C4FE9C4313E717008327C4FEAF
:101D100098C311A88327C4FE9843C167F9177D8F24
:101D20008327C4FE98C30100724405618280397123
:101D300022DE80002326A4FC2324B4FC232604FEF8
:101D4000232004FE232404FE232E04FC232204FE6D
:101D5000232C04FC832784FC9C47BD8B2326F4FEA4
:101D6000832784FC9C47C18B89CB832784FCDC437D
:101D70000327C4FED98F2326F4FEB727024093879A
:101D800007039843B707000FF98F81E70547A3883A
:101D9000E1820327C4FCB7170140631FF70083C724
:101DA000118399CB832784FC9E23B5831397070166
:101DB0004183832784FC9AA3832784FC9E2393F783
:101DC000F70FE9CF8327C4FC9C432322F4FE23248E
:101DD00004FE5DA8832784FE0547B317F700232E72
:101DE000F4FC832784FC9E233E878327C4FDF98F60
:101DF0002320F4FE032704FE8327C4FD6311F708A4
:101E0000832784FE8A07232EF4FC8327C4FD3D47E5
:101E1000B317F700232CF4FC832784FD93C7F7FF47
:101E2000032744FEF98F2322F4FE8327C4FD0327F2
:101E3000C4FEB317F700032744FED98F2322F4FE14
:101E4000832784FC984793078002631BF70083274E
:101E500084FE05473317F7008327C4FCD8CB05A0C1
:101E6000832784FC984793078004631AF70083272D
:101E700084FE05473317F7008327C4FC98CB8327DC
:101E800084FE85072324F4FE032784FE9D47E3F3A5
:101E9000E7F48327C4FC032744FE98C3832784FC0C
:101EA0009A239307F00F63F0E70E8327C4FCDC430B
:101EB0002322F4FE232404FE6DA8832784FEA107B9
:101EC0000547B317F700232EF4FC832784FC9E23D9
:101ED0003E878327C4FDF98F2320F4FE032704FEE9
:101EE0008327C4FD6312F708832784FE8A07232E05
:101EF000F4FC8327C4FD3D47B317F700232CF4FC03
:101F0000832784FD93C7F7FF032744FEF98F23221D
:101F1000F4FE8327C4FD0327C4FEB317F70003278D
:101F200044FED98F2322F4FE832784FC984793072D
:101F30008002631BF700832784FEA1070547331740
:101F4000F7008327C4FCD8CB832784FC98479307EA
:101F50008004631BF700832784FEA107054733171E
:101F6000F7008327C4FC98CB832784FE85072324AE
:101F7000F4FE032784FE9D47E3F1E7F48327C4FCC6
:101F8000032744FED8C301007254216182800111ED
:101F900022CE00102326A4FEAE872315F4FE0327CD
:101FA000C4FEB7170140631AF70083C7118391C7B6
:101FB0008357A4FEB5832315F4FE0357A4FE83279D
:101FC000C4FE98CB0100724405618280011122CECB
:101FD00000102326A4FEAE872322C4FE2315F4FEA0
:101FE0000327C4FEB7170140631AF70083C71183A4
:101FF00091C78357A4FEB5832315F4FE832744FEBF
:1020000099C70357A4FE8327C4FE98CB31A003577A
:10201000A4FE8327C4FED8CB0100724405618280F0
:10202000011122CE00102326A4FEB7170240D4438C
:10203000B7170240370740FF7D17758FD8C3B71712
:102040000240D4438327C4FE13976701B7170240A9
:10205000558FD8C30100724405618280797122D600
:102060000018232EA4FC232404FE232604FE23228E
:1020700004FE232004FEB7170240DC43B18B232467
:10208000F4FE032784FE91476302F702032784FED0
:10209000A1476305F702832784FEF9EF8327C4FD78
:1020A00037177A001307072098C3F9A88327C4FDC0
:1020B00037177A001307072098C3F9A0B717024013
:1020C000D843B7073C00F98F2326F4FEB717024028
:1020D000D843C167F98F2322F4FE8327C4FEC98346
:1020E00089072326F4FE0327C4FEC5476315F700BE
:1020F000C9472326F4FE832744FEA1E3B7470240E5
:10210000938707809C43C18B89CF0327C4FEB717F1
:102110007A00938707203307F7028327C4FD98C30B
:10212000A5A00327C4FEB7173D0093870790330788
:10213000F7028327C4FD98C381A8B7170240D8438C
:10214000B7070200F98F89CF0327C4FEB7173D00F8
:10215000938707903307F7028327C4FD98C32DA008
:102160000327C4FEB7177A00938707203307F702C7
:102170008327C4FD98C309A88327C4FD37177A00B5
:102180001307072098C30100B7170240DC4393F7F9
:10219000070F2324F4FE832784FE91832324F4FE77
:1021A000B707002013870700832784FEBA979C2374
:1021B00093F7F70F2320F4FE8327C4FD984383276A
:1021C00004FE3357F7008327C4FDD8C3B717024076
:1021D000DC4393F707702324F4FE832784FEA18356
:1021E0002324F4FEB707002013870700832784FE0B
:1021F000BA979C2393F7F70F2320F4FE8327C4FD9F
:10220000D843832704FE3357F7008327C4FD98C7BC
:10221000B7170240D843916793870780F98F23242B
:10222000F4FE832784FEAD832324F4FEB707002049
:1022300013870700832784FEBA979C2393F7F70F31
:102240002320F4FE8327C4FDD843832704FE33579D
:10225000F7008327C4FDD8C7B7170240D843B1673A
:10226000F98F2324F4FE832784FEB9832324F4FE0C
:10227000B707002013874701832784FEBA979C2362
:1022800093F7F70F2320F4FE8327C4FDD847832755
:1022900004FE3357F7028327C4FD98CB0100325464
:1022A00045618280011122CE00102326A4FE232442
:1022B000B4FE832784FE99CBB7170240D44BB717DF
:1022C00002400327C4FE558FD8CB21A8B717024080
:1022D000D44B8327C4FE13C7F7FFB7170240758F8F
:1022E000D8CB0100724405618280011122CE00101A
:1022F0002326A4FE2324B4FE832784FE99CBB7179C
:102300000240944FB71702400327C4FE558F98CF61
:1023100021A8B7170240944F8327C4FE13C7F7FFC5
:10232000B7170240758F98CF010072440561828013
:10233000011122CE00102326A4FE2324B4FE8327FD
:1023400084FE99CBB7170240D44FB717024003273A
:10235000C4FE558FD8CF21A8B7170240D44F83278A
:10236000C4FE13C7F7FFB7170240758FD8CF01001F
:102370007244056182805D7186C6A2C48008232EE6
:10238000A4FA232CB4FA232404FE232604FE2322D9
:1023900004FE232004FE232E04FC8327C4FB232EEB
:1023A000F4FC8327C4FB9E2BC207C1832324F4FEC5
:1023B000032784FEB567FD17F98F2324F4FE8327D6
:1023C00084FBFE233E87832784FED98F2324F4FEDB
:1023D000832784FE1397070141838327C4FB9AABAD
:1023E0008327C4FBDE27C207C1832324F4FE03270F
:1023F00084FEBD679387379FF98F2324F4FE8327DC
:1024000084FBDA23832784FB9E27D98F1397070148
:102410004183832784FBBE27D98FC207C1833E87B0
:10242000832784FED98F2324F4FE832784FE139709
:10243000070141838327C4FBDAA78327C4FBDE2B74
:10244000C207C1832324F4FE032784FEC167938758
:10245000F7CFF98F2324F4FE832784FBDE273E8702
:10246000832784FED98F2324F4FE832784FE1397C9
:10247000070141838327C4FBDAAB930784FC3E85C5
:10248000F13E0327C4FDB7470140938707806317D8
:10249000F700832744FD2326F4FE29A0832704FDAB
:1024A0002326F4FE0327C4FEBA878607BA978E0751
:1024B0003E97832784FB9C438A07B357F702232266
:1024C000F4FE032744FE93074006B357F702920732
:1024D0002324F4FE832784FE13D747009307400686
:1024E000B307F702032744FEB307F7402320F4FEA7
:1024F000832704FE92071387270393074006B357E9
:10250000F702BD8B032784FED98F2324F4FE832793
:1025100084FE1397070141838327C4FB9AA7010018
:10252000B640264461618280011122CE001023262C
:10253000A4FE2324B4FE832784FE85C38327C4FE20
:10254000DE271397070141838967D98F1397070106
:1025500041838327C4FEDAA705A08327C4FEDE27B4
:10256000139707014183F977FD17F98F1397070137
:1025700041838327C4FEDAA701007244056182808B
:10258000011122CE00102326A4FEAE872322C4FE12
:102590002315F4FE832744FE8DC38327C4FEDE2B60
:1025A0001397070141838357A4FED98F139707011F
:1025B00041838327C4FEDAAB25A08327C4FEDE2B2C
:1025C0001397070141838357A4FE93C7F7FFC20700
:1025D000C183F98F1397070141838327C4FEDAABC8
:1025E0000100724405618280011122CE0010232671
:1025F000A4FEAE872315F4FE8357A4FE93C7F7FF0E
:102600001397070141838327C4FE9AA301007244F4
:1026100005618280411122C60008B707002003A788
:102620000701B7177A0093870720B357F70213F70C
:10263000F70F2389E18283C7218313970701418321
:102640009307803EB307F702139707014183239A4C
:10265000E1820100324441018280797122D6001862
:10266000232EA4FC37F700E0544337F700E0F99A33
:1026700054C303C72183BA860327C4FD3307D70297
:102680002326E4FE37F700E08326C4FEB687014820
:102690001CCB232A0701B7F700E09843B7F700E007
:1026A0001367070198C3B7F700E09843B7F700E056
:1026B0001367170298C30100B7F700E0DC4313F774
:1026C00017008547E31AF7FEB7F700E09843B7F71E
:1026D00000E0799B98C30100325445618280797192
:1026E00022D60018232EA4FC37F700E0544337F716
:1026F00000E0F99A54C303D74183BA860327C4FD87
:102700003307D7022326E4FE37F700E08326C4FE12
:10271000B68701481CCB232A0701B7F700E098438E
:10272000B7F700E01367070198C3B7F700E09843D5
:10273000B7F700E01367170298C30100B7F700E08E
:10274000DC4313F717008547E31AF7FEB7F700E0FD
:102750009843B7F700E0799B98C301003254456174
:102760008280B3C7A5008D8B3307C50081E78D47F5
:1027700063EDC700AA87637EE50894218507850578
:10278000A38FD7FEE3EBE7FE828093763500AA871E
:1027900089CA942185078505A38FD7FE93F6370054
:1027A000C5BF9376C7FF138606FE63F0C70683A3F3
:1027B000050083A2450083AF850003AFC50083AE4B
:1027C000050103AE450103A3850183A8C5019385D7
:1027D000450223A0770003A8C5FF23A2570023A426
:1027E000F70123A6E70123A8D70123AAC70123AC39
:1027F000670023AE17019387470223AE07FF75B723
:1028000090419107910523AEC7FEE3EBD7FEE3E6C7
:10281000E7F68280AA87850703C7F7FF6DFF338538
:10282000A7407D158280000048656C6C6F2C776F27
:10283000726C64210A000000460F0000660D000063
:102840004E1000001A0E00004E100000140D000083
:10285000B40B00004E100000260D00004E0D0000CD
:10286000260F000056100000120110010200004067
:10287000861A0CFE0100010200010000090243005B
:102880000201008032090400000102020100052457
:1028900000100105240100010424020205240600A1
:1028A000010705810340000109040100020A00003C
:1028B00000070502024000000705830240000000F7
:1028C0000E037700630068002E0063006E000000B6
:1028D00016035500530042002000530065007200AB
:1028E000690061006C000000160330003100320006
:1028F000330034003500360037003800390000005E
:102900000000000001020304010203040607080995
:1029100000D8B805020406080403090400000000FA
:00000001FF
