:040000006F20E0216C
:100004000000000000000000521F0000102000004B
:10001400000000001C22000000000000000000009E
:100024001C2200001C220000000000000000000050
:100034001C220000000000001C2200000000000040
:100044001C2200001C2200001C2200001C220000B4
:100054001C2200001C2200001C2200001C220000A4
:100064001C2200001C2200001C2200001C22000094
:100074001C2200001C2200001C2200001C22000084
:100084001C2200001C2200001C2200001C22000074
:100094001C2200001C2200001C2200001C22000064
:1000A4001C2200001C2200001C2200001C22000054
:1000B4005A1F00001C2200001C2200001C22000009
:1000C4001C2200001C2200001C2200001C22000034
:1000D4001C2200001C2200001C2200001C22000024
:1000E4001C2200001C2200001C22000084050000C9
:0C00F4001C2200001C2200001C22000046
:100100003D432A876373C3029377F700BDEFADE5E4
:10011000937606FF3D8ABA960CC34CC30CC74CC7F6
:100120004107E36BD7FE11E28280B306C3408A0623
:100130009702000096966780A6002307B700A306E3
:10014000B7002306B700A305B7002305B700A30433
:10015000B7002304B700A303B7002303B700A3022B
:10016000B7002302B700A301B7002301B700A30023
:10017000B7002300B700828093F5F50F93968500B2
:10018000D58D93960501D58D61B79396270097027B
:10019000000096968682E78086FA9680C1171D8FAA
:1001A0003E96E374C3F8A5B7411106C622C4000801
:1001B000B707002003A70707B747950893870740AD
:1001C0006316F7000945EF20C05B25A8B70700209C
:1001D00003A70707B7E7B805938707806316F700FB
:1001E0000545EF20005A31A8B707002003A70707ED
:1001F000B777DC02938707C06315F7000145EF204E
:10020000405885450565EF2010000100B2402244AA
:1002100041018280011122CE0010B7070050130760
:100220000004D8A7B707005013078004D8B7B70752
:1002300000501387818498CBB707005013878188BB
:10024000D8CBB7070050370700201307071C98CFFB
:10025000B70700501387818CD8CFB7070050A38908
:100260000702B7070050A38D0702B7070050239A73
:100270000702B7070050239E0702B707005009473F
:100280002389E702B70700500947238BE702B70726
:1002900000500947238FE702A30704FE29A803475C
:1002A000F4FE93878182BA97238007008347F4FE88
:1002B0008507A307F4FE0347F4FE9D47E3F1E7FE3D
:1002C0000100724405618280797106D622D400183B
:1002D000232EA4FC8327C4FDA5C3B70700501947EC
:1002E00098A32945EF20D065B70700502380070069
:1002F000B70700501D47B8A3B70700501307900277
:1003000098A3093FB7070050130710F898B3930755
:10031000B0032326F4FE8327C4FEFD8B0547B316E6
:10032000F70037E700E08327C4FE9583938707042F
:100330008A07BA9794C381A0B7070050194798A3BA
:100340002945EF20F05FB70700502380070093078F
:10035000B0032324F4FE832784FEFD8B0547B316E8
:10036000F70037E700E0832784FE9583938707062D
:100370008A07BA9794C30100B25022544561828023
:10038000797106D622D40018AA87232CB4FC3687AC
:10039000A30FF4FCB287231EF4FCBA87230FF4FCEE
:1003A0008347F4FD6387071C0347F4FD9D4763E221
:1003B000E71C0347F4FD93878182BA979C2393F748
:1003C000F70F6396071A0347F4FD85476307F700A5
:1003D0000347F4FD91476313F702B7070050B107D5
:1003E0009C23A307F4FE0347F4FD85476314F70835
:1003F0008347F4FE9183A307F4FEADA80347F4FD01
:1004000089476307F7000347F4FD8D476313F7023D
:10041000B7070050B5079C23A307F4FE0347F4FD7C
:100420008D476319F7048347F4FE9183A307F4FE15
:1004300091A00347F4FD95476307F7000347F4FDD8
:1004400099476313F702B7070050B9079C23A30726
:10045000F4FE0347F4FD9947631EF7008347F4FE5B
:100460009183A307F4FE39A0B7070050BD079C2372
:10047000A307F4FE8347F4FE918B638E070E834738
:10048000F4FEA18B91C7930700042307F4FE19A083
:10049000230704FE8347E4FEA1EB8347E4FD85E3E5
:1004A000832784FD93960701C1820347F4FDB707B4
:1004B00000149107BA978A07368798C3A9A80347FB
:1004C000F4FDB70700149107BA978A079843B70756
:1004D0000020BA973E878357C4FD3E86832584FD5E
:1004E0003A85EF20B06305A80347E4FE8346F4FD98
:1004F000B70700149107B6978A079C433E97B70742
:100500000020BA973E878357C4FD3E86832584FD2D
:100510003A85EF20B0600347F4FD93878182BA9754
:10052000054798A30347F4FDB7070014B107BA972E
:100530008A073E878357C4FD1EA38347F4FD1397A4
:100540002700B707005093872703BA979C2393F798
:10055000F70F0347F4FD93162700370700501307E2
:1005600027033697F19B93F7F70F1CA329A0854724
:1005700029A0854719A0010081473E85B250225429
:1005800045618280011122CE0010B7070050FC2384
:10059000A305F4FEB7070050FC332305F4FE8347A0
:1005A000B4FE898BE380073C8347A4FE93F70703DF
:1005B00013070002638AE70013070003638DE74E09
:1005C000638F071C6F0070398347A4FE93F7F7030E
:1005D000130710026389E71013073002638EE714D4
:1005E000130700026397E71A83D72182C207C183EA
:1005F00091E7B70700501147A389E70283C7D1816C
:1006000093F7F70F93F707066398071883C7C1811D
:1006100093F7F70F1547638AE70819476393E70CC9
:1006200083D721821397070141839307F00363E780
:10063000E70083D72182C207C18319A09307000472
:100640002316F4FE83A781810357C4FE3A86BE8534
:1006500013858184EF20904C83D721821397070163
:1006600041838357C4FEB307F740139707014183C3
:100670002391E18203A781818357C4FE3E9723AC77
:10068000E180B70700500357C4FE9ABBB70700507C
:1006900083C7270313F7F70FB70700501347470027
:1006A0001377F70F2389E70235A8B7070050BC334B
:1006B00093F7F70FE207E18793F707F8139787019E
:1006C000618783C7518293F7F70FE207E187D98FDC
:1006D000139787016187B70700501377F70FB8B3F7
:1006E00011A0010055A8B707005083C7670313F78F
:1006F000F70FB7070050134747001377F70F238B07
:10070000E702B707005083C7670393F7F70FE207C5
:10071000E187F19BE207E18793E7270013978701C1
:100720006187B70700501377F70F238BE702938792
:100730008182A380070095A0B707005083C7E70315
:1007400013F7F70FB7070050134747001377F70F5A
:10075000238FE702B707005083C7E70393F7F70F2C
:10076000E207E187F19BE207E18793E72700139710
:1007700087016187B70700501377F70F238FE702D0
:1007800093878182A381070093878190238A070240
:1007900029A001006F00701C01006F00101C83472E
:1007A000A4FE93F7F70389C70947638FE71011A6E3
:1007B000B70700509C472316F4FE8347A4FE93F727
:1007C00007046384072E83C7D18193F7F70F93F74C
:1007D0000706638B070C2391018283C7C18113F73E
:1007E000F70F930700026311F70C03C78184938707
:1007F0008190238DE702938781849833938781903A
:10080000A38DE70293878184B82393878190238EF9
:10081000E70293878184B83393878190A38EE702A0
:1008200093878184D82393878190238FE7029387CE
:100830008184D83393878190A38FE7029387818443
:10084000F823938781902380E704938781907947E9
:10085000A380E70483C781842322F4FE93878184E5
:100860009C33A207032744FEBA972322F4FE938702
:100870008184BC23C207032744FEBA972322F4FED7
:1008800093878184BC33E207032744FEBA9723226F
:10089000F4FE93878190FC3313F7F70F93878190D1
:1008A000A380E704EF00106C83D72182C207C183C5
:1008B000639D071EB707005023980702B707005033
:1008C00011472389E702D5A2B707005083C7B703B2
:1008D00013F7F70FB7070050134747001377F70FC9
:1008E000A38DE702B7070050904713878190182720
:1008F0001377F70F938781909C3793F7F70FA20731
:10090000D98FC207C183BE861317060141838606AD
:1009100093878190B6979375F70FF427818A36866F
:10092000AE86D18EF4A72183131607014182F837D2
:10093000018BBA863287558FF8B7138781901827B5
:100940001377F70F938781909C3793F7F70FA207E0
:10095000D98FC207C1838507139707014183938706
:1009600081909375F70F9427818A3686AE86D18E53
:1009700094A721831316070141829837018BBA8609
:100980003287558F98B71387819018271377F70F01
:10099000938781909C3793F7F70FA207D98FC207EF
:1009A000C18313976700B70700209387071C3E9702
:1009B000B707005098CF1387819018271377F70F48
:1009C000938781909C3793F7F70FA207D98F1397DE
:1009D00007014183BD4763F1E70293878190982720
:1009E000018B98A79837018B98B7B7070050370746
:1009F00000201307071C98CF13878190582713777F
:100A0000F70F93878190DC3793F7F70FA207D98F01
:100A1000C207C1838507139707014183938781909C
:100A20009375F70FD427818A3686AE86D18ED4A7E8
:100A30002183131607014182D837018BBA8632878A
:100A4000558FD8B71387819058271377F70F93875F
:100A50008190DC3793F7F70FA207D98F139707011F
:100A60004183B54763F6E704B707005083C7B70370
:100A700013F7F70FB7070050719B1377F70FA38D8C
:100A8000E702B707005083C7B70313F7F70FB7079D
:100A90000050136727001377F70FA38DE7029387A2
:100AA00081900547A38CE70221A001006F00E06A56
:100AB00001006F00806AB707005019472389E702D9
:100AC000B70700501947A389E702938781849823C9
:100AD000A38EE180938781849833238EE18093876E
:100AE0008184F823FC33A207D98F13970701418330
:100AF0002391E18293878184B823BC33A207D98FE5
:100B0000139707014183239FE18093878184D82332
:100B1000DC33A207D98F1397070141832390E18229
:100B2000231604FEA30704FE83C7D18193F7F70FB2
:100B300093F70706F9C383C7D18193F7F70F93F7AC
:100B40000702A1CB83C7C18193F7F70F13071002E8
:100B50006384E702130710026347F70013070002DC
:100B60006384E70415A0130720026381E7041307D9
:100B70003002638FE70209A81387219423ACE18038
:100B80009D472316F4FE35A0FD57A307F4FE010090
:100B90000DA083C7D18193F7F70F93F7070491EB6B
:100BA000FD57A307F4FE31A0010021A0010011A010
:100BB000010083D721821397070141839307F00334
:100BC00063E7E70083D72182C207C18319A0930797
:100BD00000042316F4FE83A781810357C4FE3A86DE
:100BE000BE8513858184EF20607303A781818357BD
:100BF000C4FE3E9723ACE18045A983C7C18193F72A
:100C0000F70F2D476365F748139727009167938780
:100C1000C75ABA979C43828783D7E181C207C183B1
:100C2000A183C207C18393F7F70F09476383E702E4
:100C30000D476389E7040547639AE70C11671307BB
:100C4000C75D23ACE180916783C7C75D2316F4FEBF
:100C5000D1A011671307075F23ACE18091679387E9
:100C6000075FBC2313970701418391679387075F51
:100C7000BC33C207C183A207C207C183BA97231638
:100C8000F4FE49A883D7E181C207C18393F7F70F28
:100C900005476387E70205476344F70089CB95A0C2
:100CA0000947638AE7020D476382E70499A813871F
:100CB000018123ACE18083C701812316F4FEB1A03A
:100CC00011671307476323ACE180916783C74763CC
:100CD0002316F4FE1DA811671307476423ACE180B7
:100CE000916783C747642316F4FE05A011671307B5
:100CF000C76523ACE180916783C7C7652316F4FEFF
:100D000029A0FD57A307F4FE010029A0FD57A30762
:100D1000F4FE010083D72182C207C1830357C4FEBA
:100D20006376F7000357C4FE2391E18283D72182C3
:100D30001397070141839307F00363E7E70083D725
:100D40002182C207C18319A0930700042316F4FE71
:100D500083A781810357C4FE3A86BE8513858184AB
:100D6000EF20C05B03A781818357C4FE3E9723AC6D
:100D7000E1801DAE83D7E181C207C18313F7F70F6E
:100D8000A382E18215A683C7418213F7F70F23845C
:100D9000E18483D72182139707014183854763FE4E
:100DA000E72E05472391E182CDAC83D7E181C207CD
:100DB000C18313F7F70F2382E1820547A383E18202
:100DC000E5A483C7D18193F7F70FFD8B85E783D720
:100DD000E181C207C18313F7F70F85476311F72C31
:100DE00083C7618293F7F70FF99B13F7F70F2383FC
:100DF000E18275A483C7D18193F7F70F13F7F70149
:100E000089476315F70683D7E181C207C18393F74A
:100E1000F70FA9EB83D70182C207C18393F7F70FBE
:100E200013071008638AE700130730086381E7029D
:100E300009476389E70015A0B70700500947238BCE
:100E4000E7020DA8B7070050A38D070225A0B7073A
:100E500000500947238FE70231A8FD57A307F4FE8E
:100E6000010009A8FD57A307F4FE15ACFD57A30721
:100E7000F4FE35A42DA483C7D18193F7F70FFD8B22
:100E8000A1E783D7E181C207C18313F7F70F854735
:100E90006318F70291679387075FFC3393F70702A4
:100EA00081CF83C7618293F7F70F93E7170013F79A
:100EB000F70F2383E182CDAAFD57A307F4FEEDA22D
:100EC000FD57A307F4FECDA283C7D18193F7F70F97
:100ED00013F7F70189476311F70A83D7E181C20746
:100EE000C18393F7F70FC9E783D70182C207C18394
:100EF00093F7F70F13071008638AE700130730080A
:100F00006384E70409476382E702B1A8B70700508A
:100F100083C7670313F7F70FB7070050136737004E
:100F20001377F70F238BE702A1A8B707005083C7F9
:100F3000B70313F7F70FB70700501367370013779E
:100F4000F70FA38DE7022DA8B707005083C7E7036B
:100F500013F7F70FB7070050136737001377F70F32
:100F6000238FE70231A8FD57A307F4FE010009A86B
:100F7000FD57A307F4FE0DAAFD57A307F4FE2DA20B
:100F800025A22384018483D72182139707014183FB
:100F9000854763F8E71005472391E18219A223846E
:100FA000018493878184A380070083C7D18193F74D
:100FB000F70FFD8B99EB83C7618293F7F70F858B52
:100FC000DDCB09472384E1847DA083C7D18193F7DA
:100FD000F70F13F7F70189476316F70883D70182E4
:100FE000C207C18393F7F70F13071008638AE7005E
:100FF000130730086384E70409476382E702B1A856
:10100000B707005083C7670393F7F70F13F737004D
:101010008D47631DF70405472384E18481A8B70742
:10102000005083C7B70393F7F70F13F737008D47C7
:101030006310F70405472384E1841DA8B707005017
:1010400083C7E70393F7F70F13F737008D47631351
:10105000F70205472384E18431A8FD57A307F4FE76
:10106000010011A8FD57A307F4FE31A0010021A043
:10107000010011A0010083D721821397070141834A
:10108000894763F2E70209472391E18229A8FD57C6
:10109000A307F4FE11A8010001A8010031A001007E
:1010A00021A0010011A001000347F4FE9307F00FF7
:1010B000631DF700B70700501D472389E702B707F4
:1010C00000501D47A389E70241A883C7D18193F748
:1010D000F70FE207E18763DD070483D721821397C7
:1010E000070141839307000463E7E70083D7218268
:1010F000C207C18319A0930700042316F4FE83D707
:1011000021821397070141838357C4FEB307F74039
:101110001397070141832391E182B70700500357DA
:10112000C4FE9ABBB707005011472389E7022DA0E0
:1011300083D72182C207C18399EBB7070050239858
:101140000702B707005011472389E70231A0B7070C
:1011500000501147A389E7020100B7070050094773
:10116000F8A341A88347B4FE858B95C723820182EB
:10117000A382018223830182A3830182B7070050E7
:10118000A3810700EFF00F890545DD2CB70700505C
:101190000547F8A3B9A88347B4FE918BB1C7B70739
:1011A00000501147F8A32945EF109079B707005078
:1011B000DC3393F7F70F918B91CF83C7618293F75D
:1011C000F70F93E7270013F7F70F2383E18283C715
:1011D000618205A083C7618293F7F70FF59B13F730
:1011E000F70F2383E18231A0B70700500347B4FE15
:1011F000F8A301007244056173002030411106C656
:1012000022C4000885451145EF1050048545370577
:101210000200EF10100885450545EF109007854541
:101220000545EF10407E81473E85B2402244410192
:101230008280011106CE22CC0010232004FE23223E
:1012400004FE231404FE37050040EF10B01193078D
:1012500030062312F4FEB707002003A70707B7479D
:101260000F0093870724B357F702C207C183FD1706
:10127000C207C1832310F4FE231304FE231104FECE
:10128000930704FEBE8537050040EF109018854592
:1012900037050040EF10B032054685453705004060
:1012A000EF10702B9307C0022326F4FE8327C4FEA1
:1012B000FD8B0547B316F70037E700E08327C4FE30
:1012C0009583938707048A07BA9794C385453705A2
:1012D0000040EF1050230100F2406244056182801B
:1012E000397106DE22DC80002326A4FCAE8732871B
:1012F000A305F4FCBA872305F4FC232E04FC232069
:1013000004FE232204FE232404FE232804FC232AB3
:1013100004FC232C04FC9145B7170140138507807A
:10132000EF10404291472318F4FC8D47232AF4FC28
:10133000C147232CF4FC930704FDBE85B717014079
:1013400013850780EF10001AB747004093870740C6
:10135000DE27139707014183B74700409387074073
:101360004D9B42074183DAA7A1472318F4FC93075A
:101370008004232CF4FC930704FDBE85B7170140BD
:1013800013850780EF10001691472318F4FC8D4752
:10139000232AF4FCE147232CF4FC930704FDBE85CB
:1013A000B717014013850780EF10C013E1772318AA
:1013B000F4FC8D47232AF4FCC147232CF4FC93074B
:1013C00004FDBE85B717014013850780EF1080111B
:1013D0008327C4FC232EF4FC231004FE0347B4FC33
:1013E00085476316F7008D672311F4FE21A8034794
:1013F000B4FC89476316F70089672311F4FE19A02E
:10140000231104FE0347A4FC8547631AF7009307E2
:1014100000602312F4FE85672310F4FE05A0034745
:10142000A4FC8947631AF700930700402312F4FED7
:1014300085672310F4FE19A0231204FE231404FE72
:10144000B1472313F4FE9307C4FDBE85B7470040A0
:1014500013850740EF10701993050004B74700404B
:1014600013850740EF10B0468545B7470040138508
:101470000740EF10D0320100F250625421618280A7
:10148000797122D60018AA87A30FF4FC2394019047
:10149000938781902391070093878190239207007F
:1014A0009387819023830700938781907947F8B3CE
:1014B0009387819023940700938781902395070059
:1014C0009387819023960700A30704FE31A88347E2
:1014D000F4FE138781908607BA9723970700834706
:1014E000F4FE8507A307F4FE0347F4FEBD47E3F0CF
:1014F000E7FE938781902387070293878190239843
:101500000702938781902399070293878190238A0A
:10151000070293878190239B070293878190238CF6
:10152000070293878190A38C070223A8018223AA34
:1015300001828347F4FDB1C793878190238D070211
:1015400093878190130720FCA38DE70293878190F6
:101550000547238EE70293878190A38E0702938726
:101560008190238F070293878190A38F070293872F
:10157000819021472380E704938781907947A38056
:10158000E70401003254456182805D7186C6A2C4C1
:101590008008AA87232CB4FA232AC4FAA30FF4FAEA
:1015A000232204FC232404FC232604FC232804FC1B
:1015B000232A04FC232C04FC232E04FC232004FEF9
:1015C000232204FE232404FE232604FE8347F4FB87
:1015D000B5EBB707024013850708EF00B04CB747DB
:1015E0000040938747402322F4FC832784FB232475
:1015F000F4FCC1472326F4FC832744FB2328F4FC96
:10160000232A04FC93070008232CF4FC232E04FC5B
:10161000232004FE232204FE85672324F4FE2326D0
:1016200004FE930744FCBE85B707024013850708F4
:10163000EF00D05C8545B707024013850708EF002F
:10164000706695A8B70702401385C706EF0090455E
:10165000B7470040938747402322F4FC832784FB4D
:101660002324F4FC232604FC832744FB2328F4FCD6
:10167000232A04FC93070008232CF4FC232E04FCEB
:10168000232004FE930700022322F4FE856723240F
:10169000F4FE232604FE930744FCBE85B7070240F0
:1016A0001385C706EF0090558545B707024013859F
:1016B000C706EF00305F0100B640264461618280BA
:1016C000011106CE22CC0010AA872324B4FE36874F
:1016D000A307F4FEB2872307F4FEBA87A306F4FE3D
:1016E000014693050004B747004013850740EF10FB
:1016F00090108145B70702401385C706EF00905A46
:101700008145B707024013850708EF00B05903472A
:10171000D4FE8347E4FE3A86BE85032584FEC9369F
:101720000146B70700209385071C0145B93D856731
:1017300013860780B70700209385075C0545B13500
:10174000054693050004B747004013850740EF1096
:10175000900A8347F4FE3E8525330100F24062443F
:1017600005618280011106CE22CC00109387819002
:1017700083C7D70393F7F70FE2073E8793878190DC
:1017800083C7C70393F7F70FC207BA972326F4FE60
:101790009387819083C7B70393F7F70FA2073E871C
:1017A0009387819083C7A70393F7F70FBA9703270F
:1017B000C4FEBA972326F4FE9387819083C7E7037C
:1017C000A305F4FE9387819083C7F7032305F4FEF6
:1017D0000347A4FE8347B4FEBA863E868325C4FE33
:1017E0000145F93DB7070050370700201307071CD4
:1017F00098CFB707005083C7B70313F7F70FB707A2
:101800000050719B1377F70FA38DE7023707005045
:10181000B70700500347B7031377F70FA38DE7020D
:101820000100F240624405618280011106CE22CCA3
:1018300000109387819083C7E70293F7F70F638BBC
:10184000071EB7470040938707409E23C207C18306
:1018500093F707046382072CB7470040938707403C
:101860001307F0FB9AA3B747004093870740DE2B8E
:10187000139707014183B7470040938707401377C9
:10188000F7F742074183DAAB9387819023870702FA
:101890009307B0032322F4FE832744FEFD8B054704
:1018A000B316F70037E700E0832744FE958393875C
:1018B00007068A07BA9794C39307B0032324F4FE5C
:1018C000832784FEFD8B0547B316F70037E700E05A
:1018D000832784FE9583938707068A07BA9794C364
:1018E000938781909E3B139707014183B70702407E
:1018F00093870708DC43C207C183B307F740231768
:10190000F4FE938781909E3B139707014183835791
:10191000E4FEB307F7401397070141839387819053
:101920009ABB93878190BE3B1397070141838357EE
:10193000E4FEBA9713970701418393878190BABB5E
:10194000938781909E3BC207C183BDE393878190BB
:10195000BE27C207C183BE86138781909397160066
:10196000BA972397070093878190BE27C207C18348
:10197000850713970701418393878190BAA79387BF
:101980008190BE27139707014183BD4763F6E700A7
:10199000938781902395070093878190DE27C20764
:1019A000C183FD1713970701418393878190DAA7BD
:1019B0009387819083C7970313F7F70F85476316C3
:1019C000F70493878190DE271397070141838547AA
:1019D00063EDE702B707005083C7B70313F7F70FAC
:1019E000B7070050719B1377F70FA38DE7023707F6
:1019F0000050B70700500347B7031377F70FA38DC5
:101A0000E70293878190A38C07029307B0032320FA
:101A1000F4FE832704FEFD8B0547B316F70037E776
:101A200000E0832704FE9583938707048A07BA970B
:101A300094C3DDA093878190DE27C207C183638DA5
:101A4000070C938781909E3BC207C1839DEF9387CC
:101A50008190BE27C207C183BE861387819093976A
:101A60001600BA97FE271397070141839387819049
:101A70009ABB93878190BE27C207C1839A071397A9
:101A80000701418393878190BABB93050004B74750
:101A9000004013850740EF1080638145B70702407F
:101AA00013850708EF00102093878190BE3BC20783
:101AB000C1833E87B70700209387071C3E97B7076F
:101AC000024093870708D8C7938781909E3B13975E
:101AD00007014183B707024093870708D8C38545AC
:101AE000B707024013850708EF00D01BB747004037
:101AF00093870740DE2B139707014183B7470040C8
:101B0000938707401367070842074183DAAB93873F
:101B1000819005472387E7020100F2406244056196
:101B20008280397106DE22DC80009307B003232017
:101B3000F4FE832704FEFD8B0547B316F70037E755
:101B400000E0832704FE9583938707068A07BA97E8
:101B500094C39307B0032322F4FE832744FEFD8B36
:101B60000547B316F70037E700E0832744FE958367
:101B7000938707068A07BA9794C3B70702409387EB
:101B8000C706D84323A8E18203A7418383A7018323
:101B9000630CF70A03A7418383A7018363F0E7027D
:101BA00083A7418313970701418383A70183C2075A
:101BB000C183B307F7402317F4FE35A083A7018341
:101BC000C207C183056713070780B307F7402317D0
:101BD000F4FE83A741831397070141838357E4FEF3
:101BE000BA972317F4FE03A7018323AAE182938700
:101BF0008190DE23C207C1833E878357E4FE3E9770
:101C000085679387078063DEE70093878190DE23F3
:101C1000C207C183BE85916713858758EF10207B6B
:101C200005A093878190DE23139707014183835793
:101C3000E4FEBA9713970701418393878190DAA353
:101C400093878190238307009307B003232EF4FC2E
:101C50008327C4FDFD8B0547B316F70037E700E087
:101C60008327C4FD9583938707048A07BA9794C393
:101C700093878190DE23C207C1836380071E938709
:101C8000819083C7470393F7F70F6395071A9387EC
:101C90008190DE23C207C1832324F4FE231604FEB1
:101CA000032784FE9307F00363F7E700930700041C
:101CB0002316F4FE0DA093878190FC2313F7F70FF2
:101CC00093878190FC3393F7F70F6366F7008327C0
:101CD00084FE2316F4FE0357C4FE93878190BE232F
:101CE000C207C183BE86856793870780958F63DEB1
:101CF000E70093878190BE23C207C183056713075E
:101D00000780B307F7402316F4FE8357C4FE6386AB
:101D100007149307B003232AF4FC832744FDFD8BAB
:101D20000547B316F70037E700E0832744FD9583A6
:101D3000938707068A07BA9794C39307B003232CA7
:101D4000F4FC832784FDFD8B0547B316F70037E7C6
:101D500000E0832784FD9583938707068A07BA9757
:101D600094C3938781900547238AE70293878190E4
:101D7000239B070293878190BE23C207C1833E87BE
:101D8000B70700209387075CBA970357C4FE8546C0
:101D90003A86BE850D45EFE0AFDE93878190DE2366
:101DA0001397070141838357C4FEB307F740139786
:101DB0000701418393878190DAA393878190BE23A3
:101DC0001397070141838357C4FEBA9713970701FE
:101DD000418393878190BAA393878190BE23139701
:101DE000070141839307F07F63F6E70093878190B3
:101DF000239107000357C4FE930700046317F700FD
:101E0000938781900547238CE7029307B00323282B
:101E1000F4FC832704FDFD8B0547B316F70037E775
:101E200000E0832704FD9583938707048A07BA9708
:101E300094C325A093878190FE3B139707014183AC
:101E4000BD679387F7A563FAE70093878190238A9C
:101E5000070293878182A38107009387819083C7BC
:101E6000870393F7F70F6381070E9387819083C7EA
:101E7000470393F7F70FE9EB93878190FE3B1397A6
:101E8000070141839307702563F0E70C9307B003C4
:101E90002322F4FC832744FCFD8B0547B316F7008F
:101EA00037E700E0832744FC9583938707068A077A
:101EB000BA9794C39307B0032324F4FC832784FCCC
:101EC000FD8B0547B316F70037E700E0832784FC56
:101ED0009583938707068A07BA9794C3938781905F
:101EE0000547238AE70293878190239B0702938704
:101EF0008190BE23C207C1833E87B7070020938726
:101F0000075CBA9785460146BE850D45EFE04FC791
:101F100093878190238A070293878190238C0702FD
:101F20009307B0032326F4FC8327C4FCFD8B0547ED
:101F3000B316F70037E700E08327C4FC9583938747
:101F400007048A07BA9794C30100F25062542161D2
:101F50008280411122C6000801A0411122C600085A
:101F600083C7818381CBB71701409387078021679F
:101F700098CB39A0B7170140938707802167D8CB4A
:101F800083C7818393C7170013F7F70F238CE18270
:101F900093878190FC2393F7F70F850713F7F70FCB
:101FA00093878190F8A31387819003476703137782
:101FB000F70F9387819083C7770393F7F70FA207F3
:101FC000D98FC207C1838507139707014183938780
:101FD00081909375F70F83C66703818A3686AE8634
:101FE000D18E238BD702218313160701418203C7A9
:101FF0007703018BBA863287558FA38BE702B70729
:10200000004079579AAB01003244410173002030FF
:10201000411122C6000801A0411106C622C40008D1
:10202000EF10A00DF16713850720EF10A019B70777
:10203000002083A70707BE85916713854759EF10D6
:102040000039EFF0AF9BEFF0CF9E81460146F1677C
:10205000938507200545EFF0AFE6EFE0EF940545E7
:10206000EFE08FA691671385475AEF108047EFF096
:102070005FABEFF08FFBE5BF411106C622C400083D
:10208000B71702409843B71702401367170098C369
:10209000B7170240D443B71702403707FFF0758FD8
:1020A000D8C3B71702409443B71702403707F7FE6B
:1020B0007D17758F98C3B71702409443B717024036
:1020C0003707FCFF7D17758F98C3B7170240D443BD
:1020D000B7170240370701FF7D17758FD8C3B717B1
:1020E000024037079F0098C731200100B2402244C8
:1020F00041018280411106C622C40008312001003E
:10210000B240224441018280011122CE00102326D8
:1021100004FE232404FEB71702409443B71702407D
:102120004167558F98C3B71702409843B70702001D
:10213000F98F2324F4FE8327C4FE85072326F4FEAB
:10214000832784FE91E70327C4FE8567E31DF7FC20
:10215000B71702409843B7070200F98F89C7854730
:102160002324F4FE19A0232404FE032784FE8547BC
:102170006312F70A37170240B71702405843D8C313
:1021800037170240B71702405843D8C3B717024069
:10219000D843B717024013670740D8C3B7170240A8
:1021A000D443B71702403707C1FF7D17758FD8C3D7
:1021B000B7170240D443B717024037072900558F9D
:1021C000D8C3B71702409443B7170240370700013E
:1021D000558F98C30100B71702409843B707000214
:1021E000F98FF5DBB7170240D843B7170240719B50
:1021F000D8C3B7170240D843B71702401367270068
:10220000D8C30100B7170240DC4313F7C700A1474A
:10221000E31AF7FE010072440561828001A097E194
:10222000FF1F93812165173100201301A1DD1725C0
:1022300000001305254E97E5FF1F9385A5DC138647
:10224000818163FAC5008322050023A05500110592
:102250009105E3EAC5FE1385818193854155637736
:10226000B500232005001105E36DB5FEFD42739016
:1022700002BC8D42739042809302800873900230BA
:1022800097E2FFFF938242D893E23200739052307C
:10229000EFF09FDE97020000938242D873901234D1
:1022A00073002030011122CE00102326A4FE8327C4
:1022B000C4FE9843C167F9177D8F8327C4FE98C376
:1022C0008327C4FE23A007008327C4FE23A20700A0
:1022D0008327C4FE23A407008327C4FE23A6070088
:1022E0000327C4FEB7070240A107631BF700B70727
:1022F0000240D843B70702401367F700D8C3DDA8F0
:102300000327C4FEB7070240F107631BF700B707B6
:102310000240D843B70702401367070FD8C3D9A8B4
:102320000327C4FEB707024093870703631DF70026
:10233000B7070240D443B70702400567130707F009
:10234000558FD8C345A80327C4FEB707024093871B
:102350004704631BF700B7070240D443B7070240A6
:102360003D67558FD8C379A00327C4FEB707024045
:1023700093878705631CF700B7070240D443B7076C
:10238000024037070F00558FD8C3ADA00327C4FE06
:10239000B70702409387C706631CF700B7070240E0
:1023A000D443B70702403707F000558FD8C399A030
:1023B0000327C4FEB707024093870708631CF70092
:1023C000B7070240D443B70702403707000F558FC5
:1023D000D8C30DA00327C4FEB7070240938747095F
:1023E000631AF700B7070240D843B70702401367E4
:1023F000F700D8C30100724405618280797122D64A
:102400000018232EA4FC232CB4FC232604FE8327CF
:10241000C4FD9C432326F4FE0327C4FEE177BD07D9
:10242000F98F2326F4FE832784FD9847832784FDB4
:102430009C535D8F832784FD9C4B5D8F832784FD98
:10244000DC4B5D8F832784FD9C4F5D8F832784FD4C
:10245000DC4F5D8F832784FDDC535D8F832784FDF4
:102460009C57D98F0327C4FED98F2326F4FE8327D8
:10247000C4FD0327C4FE98C3832784FDD847832760
:10248000C4FDD8C3832784FD98438327C4FD98C720
:10249000832784FDD8438327C4FDD8C70100325465
:1024A00045618280011122CE00102326A4FE232440
:1024B000B4FE832784FE91CB8327C4FE9C4313E79D
:1024C00017008327C4FE98C311A88327C4FE98432E
:1024D000C167F9177D8F8327C4FE98C3010072443A
:1024E00005618280397122DE80002326A4FC23242A
:1024F000B4FC232604FE232004FE232404FE232E02
:1025000004FC232204FE232C04FC832784FC9C4728
:10251000BD8B2326F4FE832784FC9C47C18B89CB8B
:10252000832784FCDC430327C4FED98F2326F4FED3
:10253000B7270240938707039843B707000FF98F27
:1025400081E70547A38CE1820327C4FCB71701404C
:10255000631FF70083C7918399CB832784FC9E2355
:10256000B583139707014183832784FC9AA38327AC
:1025700084FC9E2393F7F70FE9CF8327C4FC9C4389
:102580002322F4FE232404FE5DA8832784FE05474E
:10259000B317F700232EF4FC832784FC9E233E8789
:1025A0008327C4FDF98F2320F4FE032704FE83272D
:1025B000C4FD6311F708832784FE8A07232EF4FCE9
:1025C0008327C4FD3D47B317F700232CF4FC832772
:1025D00084FD93C7F7FF032744FEF98F2322F4FEFF
:1025E0008327C4FD0327C4FEB317F700032744FE67
:1025F000D98F2322F4FE832784FC98479307800217
:10260000631BF700832784FE05473317F7008327F2
:10261000C4FCD8CB05A0832784FC9847930780048B
:10262000631AF700832784FE05473317F7008327D3
:10263000C4FC98CB832784FE85072324F4FE03275C
:1026400084FE9D47E3F3E7F48327C4FC032744FE9D
:1026500098C3832784FC9A239307F00F63F0E70E57
:102660008327C4FCDC432322F4FE232404FE6DA84C
:10267000832784FEA1070547B317F700232EF4FC38
:10268000832784FC9E233E878327C4FDF98F232064
:10269000F4FE032704FE8327C4FD6312F708832793
:1026A00084FE8A07232EF4FC8327C4FD3D47B3171D
:1026B000F700232CF4FC832784FD93C7F7FF03273F
:1026C00044FEF98F2322F4FE8327C4FD0327C4FEB2
:1026D000B317F700032744FED98F2322F4FE832784
:1026E00084FC984793078002631BF700832784FECE
:1026F000A10705473317F7008327C4FCD8CB8327EE
:1027000084FC984793078004631BF700832784FEAB
:10271000A10705473317F7008327C4FC98CB83270D
:1027200084FE85072324F4FE032784FE9D47E3F1FE
:10273000E7F48327C4FC032744FED8C30100725486
:1027400021618280011122CE00102326A4FEAE87D3
:102750002315F4FE0327C4FEB7170140631AF700E0
:1027600083C7918391C78357A4FEB5832315F4FED5
:102770000357A4FE8327C4FE98CB01007244056171
:102780008280011122CE00102326A4FEB71702403A
:10279000D443B7170240370740FF7D17758FD8C362
:1027A000B7170240D4438327C4FE13976701B717B6
:1027B0000240558FD8C3010072440561828079714F
:1027C00022D60018232EA4FC232404FE232604FE74
:1027D000232204FE232004FEB7170240DC43B18B02
:1027E0002324F4FE032784FE91476302F7020327A4
:1027F00084FEA1476305F702832784FEF9EF832750
:10280000C4FD37177A001307072098C3F9A8832758
:10281000C4FD37177A001307072098C3F9A0B7172C
:102820000240D843B7073C00F98F2326F4FEB717C0
:102830000240D843C167F98F2322F4FE8327C4FEE8
:10284000C98389072326F4FE0327C4FEC547631501
:10285000F700C9472326F4FE832744FEA1E3B747C8
:102860000240938707809C43C18B89CF0327C4FE16
:10287000B7177A00938707203307F7028327C4FD31
:1028800098C3A5A00327C4FEB7173D009387079000
:102890003307F7028327C4FD98C381A8B717024006
:1028A000D843B7070200F98F89CF0327C4FEB717B3
:1028B0003D00938707903307F7028327C4FD98C331
:1028C0002DA00327C4FEB7177A009387072033078C
:1028D000F7028327C4FD98C309A88327C4FD3717CF
:1028E0007A001307072098C30100B7170240DC43A2
:1028F00093F7070F2324F4FE832784FE9183232478
:10290000F4FEB707002013870700832784FEBA97D9
:102910009C2393F7F70F2320F4FE8327C4FD9843ED
:10292000832704FE3357F7008327C4FDD8C3B717A6
:102930000240DC4393F707702324F4FE832784FED0
:10294000A1832324F4FEB707002013870700832701
:1029500084FEBA979C2393F7F70F2320F4FE832776
:10296000C4FDD843832704FE3357F7008327C4FDF3
:1029700098C7B7170240D843916793870780F98FAC
:102980002324F4FE832784FEAD832324F4FEB707BB
:10299000002013870700832784FEBA979C2393F7B0
:1029A000F70F2320F4FE8327C4FDD843832704FEBA
:1029B0003357F7008327C4FDD8C7B7170240D84361
:1029C000B167F98F2324F4FE832784FEB98323247F
:1029D000F4FEB707002013874707832784FEBA97C2
:1029E0009C2393F7F70F2320F4FE8327C4FDD847D9
:1029F000832704FE3357F7028327C4FD98CB0100D9
:102A0000325445618280011122CE00102326A4FE9B
:102A10002324B4FE832784FE99CBB7170240D44BFE
:102A2000B71702400327C4FE558FD8CB21A8B7178C
:102A30000240D44B8327C4FE13C7F7FFB7170240E9
:102A4000758FD8CB0100724405618280011122CEBE
:102A500000102326A4FE2324B4FE832784FE99CBF2
:102A6000B7170240944FB71702400327C4FE558F93
:102A700098CF21A8B7170240944F8327C4FE13C7ED
:102A8000F7FFB7170240758F98CF010072440561B8
:102A90008280011122CE00102326A4FE2324B4FE3E
:102AA000832784FE99CBB7170240D44FB717024053
:102AB0000327C4FE558FD8CF21A8B7170240D44FA3
:102AC0008327C4FE13C7F7FFB7170240758FD8CF0F
:102AD0000100724405618280011122CE001023267C
:102AE000A4FE2324B4FE832784FE99CBB7170240AB
:102AF000D447B71702400327C4FE558FD8C721A873
:102B0000B7170240D4478327C4FE13C7F7FFB71790
:102B10000240758FD8C7010072440561828001119F
:102B200022CE00102326A4FE2324B4FE832784FE95
:102B300099CBB7170240944BB71702400327C4FE46
:102B4000558F98CB21A8B7170240944B8327C4FE1A
:102B500013C7F7FFB7170240758F98CB0100724477
:102B600005618280011106CE22CC00102326A4FE2E
:102B70000327C4FEB7370140938707C0631DF700E2
:102B80008545856713850780813F81458567138566
:102B90000780993795A80327C4FEB707004063193B
:102BA000F70085450545A53F814505458D3FA9A809
:102BB0000327C4FEB7070040938707406319F70057
:102BC00085450945A93F81450945913F35A803271A
:102BD000C4FEB7170040938707806319F700854547
:102BE0001145353F814511451D3F39A80327C4FED6
:102BF000B7170040938707C06318F7008545214544
:102C0000393F81452145213F0100F2406244056181
:102C10008280797122D60018232EA4FC232CB4FCC8
:102C2000231704FE8327C4FD9E232317F4FE0327E6
:102C3000C4FDB7370140938707C06300F70403273B
:102C4000C4FDB7070040630AF7020327C4FDB707B6
:102C50000040938707406302F7020327C4FDB717BC
:102C6000004093870780630AF7000327C4FDB71766
:102C70000040938707C06310F7028357E4FE93F781
:102C8000F7F82317F4FE832784FDBA238357E4FE65
:102C9000D98F2317F4FE8357E4FE93F7F7CF23175A
:102CA000F4FE832784FDFA238357E4FED98F23178C
:102CB000F4FE8327C4FD0357E4FE9AA3832784FD13
:102CC000DA238327C4FDDAB7832784FD9A23832779
:102CD000C4FD9AB70327C4FDB7370140938707C0E7
:102CE000631BF700832784FD9C271397070141830B
:102CF0008327C4FD9ABB8327C4FD0547DAAB0100D7
:102D0000325445618280011122CE00102326A4FE98
:102D10002324B4FE832784FE99CF8327C4FE9E23F9
:102D2000C207C18393E717001397070141838327E5
:102D3000C4FE9AA329A88327C4FE9E23C207C18389
:102D4000F99B1397070141838327C4FE9AA30100CF
:102D5000724405618280011122CE00102326A4FE58
:102D6000AE872322C4FE2315F4FE832744FE8DC3C1
:102D70008327C4FEDE271397070141838357A4FEF0
:102D8000D98F1397070141838327C4FEDAA725A0B3
:102D90008327C4FEDE271397070141838357A4FED0
:102DA00093C7F7FFC207C183F98F139707014183C8
:102DB0008327C4FEDAA701007244056182800111F5
:102DC00022CE00102326A4FEAE872315F4FE8357DF
:102DD000A4FE93C7F7FF1397070141838327C4FE1F
:102DE0009AAB01007244056182805D7186C6A2C4FF
:102DF0008008232EA4FA232CB4FA232404FE2326CD
:102E000004FE232204FE232004FE232E04FC832739
:102E1000C4FB232EF4FC8327C4FB9E2BC207C18373
:102E20002324F4FE032784FEB567FD17F98F2324BE
:102E3000F4FE832784FBFE233E87832784FED98FFD
:102E40002324F4FE832784FE1397070141838327FD
:102E5000C4FB9AAB8327C4FBDE27C207C1832324AC
:102E6000F4FE032784FEBD679387379FF98F2324E1
:102E7000F4FE832784FBDA23832784FB9E27D98FE4
:102E8000139707014183832784FBBE27D98FC2078D
:102E9000C1833E87832784FED98F2324F4FE8327B2
:102EA00084FE1397070141838327C4FBDAA7832796
:102EB000C4FBDE2BC207C1832324F4FE032784FE58
:102EC000C1679387F7CFF98F2324F4FE832784FB10
:102ED000DE273E87832784FED98F2324F4FE8327B1
:102EE00084FE1397070141838327C4FBDAAB930762
:102EF00084FC3E85EFF0BF8C0327C4FDB74701403B
:102F0000938707806317F700832744FD2326F4FE89
:102F100029A0832704FD2326F4FE0327C4FEBA87D5
:102F20008607BA978E073E97832784FB9C438A07C0
:102F3000B357F7022322F4FE032744FE930740060B
:102F4000B357F70292072324F4FE832784FE13D796
:102F5000470093074006B307F702032744FEB30771
:102F6000F7402320F4FE832704FE920713872703EC
:102F700093074006B357F702BD8B032784FED98F12
:102F80002324F4FE832784FE1397070141838327BC
:102F9000C4FB9AA70100B6402644616182800111FA
:102FA00022CE00102326A4FE2324B4FE832784FE11
:102FB00085C38327C4FEDE271397070141838967F2
:102FC000D98F1397070141838327C4FEDAA705A091
:102FD0008327C4FEDE27139707014183F977FD1786
:102FE000F98F1397070141838327C4FEDAA70100F5
:102FF000724405618280011122CE00102326A4FEB6
:10300000AE872322C4FE2315F4FE832744FE8DC31E
:103010008327C4FEDE2B1397070141838357A4FE49
:10302000D98F1397070141838327C4FEDAAB25A00C
:103030008327C4FEDE2B1397070141838357A4FE29
:1030400093C7F7FFC207C183F98F13970701418325
:103050008327C4FEDAAB010072440561828001114E
:1030600022CE00102326A4FEAE872315F4FE83573C
:10307000A4FE93F7F71F1397070141838327C4FE2C
:10308000DAA30100724405618280797122D60018AA
:10309000232EA4FCAE87231DF4FC232604FE8327E5
:1030A000C4FD9E231397070141838357A4FDF98F25
:1030B000C207C18389C785472326F4FE19A02326AA
:1030C00004FE8327C4FE3E8532544561828001118F
:1030D00022CE00102326A4FEAE872315F4FE8357CC
:1030E000A4FE93C7F7FF1397070141838327C4FE0C
:1030F0009AA30100724405618280411122C6000832
:10310000B707002003A70707B7177A0093870720A0
:10311000B357F70213F7F70F238DE18283C7A1831B
:103120001397070141839307803EB307F702139774
:1031300007014183239EE1820100324441018280E4
:10314000797122D60018232EA4FC37F700E05443EF
:1031500037F700E0F99A54C303C7A183BA8603275F
:10316000C4FD3307D7022326E4FE37F700E08326A9
:10317000C4FEB68701481CCB232A0701B7F700E03D
:103180009843B7F700E01367070198C3B7F700E06B
:103190009843B7F700E01367170298C30100B7F729
:1031A00000E0DC4313F717008547E31AF7FEB7F793
:1031B00000E09843B7F700E0799B98C301003254D0
:1031C00045618280397106DE22DC80002326A4FC62
:1031D0008545916713854700EFF05F8793070020CF
:1031E0002312F4FE8D472324F4FEE1472326F4FE48
:1031F000930744FEBE85B717014013850780EFF0A3
:103200006FAE8327C4FC232AF4FC231C04FC231D7B
:1032100004FC231E04FC231004FEA147231FF4FC1E
:10322000930744FDBE85B747014013850780EFF043
:10323000DFBB8545B747014013850780EFF03FD6D8
:103240000100F250625421618280797106D622D445
:103250000018232EA4FC232CB4FC232AC4FC232610
:1032600004FE232604FE89A0010093050004B7474D
:10327000014013850780113DAA87E5DB832784FD84
:1032800013871700232CE4FC83870700C207C18340
:10329000BE85B747014013850780EFF05FDC8327C9
:1032A000C4FE85072326F4FE0327C4FE832744FDBE
:1032B000E34CF7FA832744FD3E85B2502254456122
:1032C0008280011122CE00102326A4FE03A7818054
:1032D0008327C4FE3E9793874155636DF70003A78C
:1032E00081808327C4FE3E97B757002093870780CD
:1032F00063F4E700FD5739A803A781808327C4FE44
:103300003E9723A4E18003A781808327C4FEB307EF
:10331000F040BA973E85724405618280B3C7A5002C
:103320008D8B3307C50081E78D4763EDC700AA8702
:10333000637EE508942185078505A38FD7FEE3EB1F
:10334000E7FE828093763500AA8789CA9421850793
:103350008505A38FD7FE93F63700C5BF9376C7FFC9
:10336000138606FE63F0C70683A3050083A245000B
:1033700083AF850003AFC50083AE050103AE4501F1
:1033800003A3850183A8C5019385450223A0770087
:1033900003A8C5FF23A2570023A4F70123A6E70132
:1033A00023A8D70123AAC70123AC670023AE1701C6
:1033B0009387470223AE07FF75B7904191079105A8
:1033C00023AEC7FEE3EBD7FEE3E6E7F68280397172
:1033D0003EDA2ED232D436D63AD842DC46DE938755
:1033E000C18022CC804326CA06CEAA8409C41C4CC4
:1033F00099E32285ED290C4454102686228536C691
:10340000EF007012F2406244D244216182800111C7
:1034100026CA4AC806CE22CC4EC652C4AA842E89D9
:1034200001C51C4D91E3E1219C4C804499E3268524
:103430007D299717000093872726631BF402C0405D
:103440005E24A18BB1C71C48A1C7FD59294A1C4461
:1034500083450900FD17B1E91CC463DD0706228618
:10346000A94526856120FD576308F502294535A049
:1034700097170000938747246314F4008044C9B76A
:10348000971700009387471FE31CF4FAC0444DBF11
:10349000A2852685112A55D97D55F2406244D24431
:1034A0004249B249224A056182801CC4050963D79A
:1034B0000700184C63CAE700638845011C40138766
:1034C000170018C08CA361B7228626850520E3105B
:1034D00035F9D9B71C401387170018C0294798A39E
:1034E00071B79387C180AA85884315B7011122CC93
:1034F00026CA4AC806CE4EC6AA842E89328401C581
:103500001C4D91E3ED26971700009387E71863178A
:10351000F406C0401C4C1CC45E24A18BC1C31C48D3
:10352000B5CF1C4808409379F90F1379F90F1D8D19
:103530005C486346F500A2852685692C25E51C4478
:103540000505FD171CC41C401387170018C02380F5
:1035500037015C486388A7005E24858B81CBA9472F
:103560006316F900A2852685B5240DEDF24062446C
:103570004A85D2444249B2490561828097170000CA
:10358000938787136314F400804469B7971700008A
:103590009387870EE310F4F8C044ADBFA28526855B
:1035A000212041D17D59D9B741119387C18026C2CD
:1035B000844322C44AC006C62A892E8489C49C4CEE
:1035C00099E326852D26971700009387E70C631B48
:1035D000F402C0400317C40093170701C18393F698
:1035E0008700ADEA93F6070195EEA5472320F90081
:1035F000136707045AA47D55B240224492440249FD
:1036000041018280971700009387070B6314F40031
:103610008044C9B79717000093870706E31CF4FAA4
:10362000C0444DBF918B9DC34C5889C99307440436
:103630006384F5004A853123232A04025E24232271
:10364000040093F7B7FD5EA41C481CC05E2493E7FA
:1036500087005EA41C4899EB5E241307002093F7B3
:1036600007286385E700A2854A85A1215E2413F718
:1036700017001DC35C4823240400B307F0401CCC92
:103680001C480145B5FB8317C40013F707082DD765
:1036900093E707045EA485B7898B014791E35848F7
:1036A00018C4F9BFDE25011122CC26CA06CE4AC8AD
:1036B0004EC613F78700AA842E8479EBD841634D58
:1036C000E000B841634AE0000145F2406244D24460
:1036D0004249B2490561828058547DD703A904004C
:1036E0009396370123A0040063DB060670485E242E
:1036F000918B99C75C401D8E5C5899C33C401D8ED0
:103700005C540C50814626858297FD575A24631DD0
:10371000F5009440F54763E8D706B70740208507D2
:10372000B3D7D700858BA5C31C48232204001CC037
:103730009317370163D80700FD576314F5009C40C9
:1037400091E368C84C5823A02401BDDD93074404CD
:103750006384F5002685F526232A0402B5B70C50AC
:103760000146854626850297FD572A86E311F5F81E
:103770009C40B5DF75476385E70059476393E704CD
:1037800023A0240191B7136707045AA47D5535BFC0
:1037900083A90501E38A09F203A905008D8B23A003
:1037A000350133093941014791E3D84918C4E35D34
:1037B00020F11C540C50CA864E862685829763479A
:1037C000A0005E2493E707045EA4C9B7AA99330951
:1037D000A940F1BF9C49B9CF011122CC06CE2A8461
:1037E00011C51C4D81E72EC61922B245971700005E
:1037F000938787EA639BF5004C408397C50095C784
:1038000022856244F240056171BD971700009387DD
:10381000A7EA6394F5000C44CDB79717000093878F
:10382000A7E5E39CF5FC4C44C9BFF2406244014566
:103830000561828001458280411122C406C62A8426
:103840004EA572A523200500232205002324050090
:103850002322050623280500232A0500232C050022
:10386000214681451305C505EFC09F8997170000C4
:10387000938787B15CD0971700009387A7B31CD4B8
:1038800097170000938787B75CD49717000093873A
:10389000E7B900D01CD8B24022444101828097058C
:1038A0000000938565F3A9A2411126C21306800684
:1038B0009384F5FFB384C4024AC02E8922C406C68D
:1038C000938544071D262A8401CD23200500232249
:1038D0002501310508C4138684068145EFC05F8247
:1038E0002285B240224492440249410182801C4D0B
:1038F000ADE3411106C622C497070000938767FA1B
:103900001CD5938741819C43232405042326050469
:10391000232805046314F50085471CCD2A841D283F
:1039200048C02285052808C422852D2048C4484067
:1039300001469145113708440546A545F53D4844E3
:103940000946C945D53D85471CCCB24022444101BA
:103950008280828041119387418126C284434AC07C
:1039600006C69C4C22C42A8999E32685493793844C
:1039700084048044DC40FD1763D607009C40B9CF27
:103980008440C5BF0317C40039E7C17785072322E8
:1039900004062320040023220400232404005CC422
:1039A00023280400232A0400232C040021468145F7
:1039B0001305C405EFC0CFF4232A0402232C04020C
:1039C00023240404232604042285B2402244924482
:1039D0000249410182801304840671BF91454A85E2
:1039E000E13588C051FDB1472320F9000144E9BF0A
:1039F000797122D44AD052CC56CA5AC85EC606D66D
:103A000026D24ECE2A8AAE8A130485040149054B7C
:103A1000FD5B09ECB25022544A8592540259F24996
:103A2000624AD24A424BB24B4561828004448329A8
:103A30004400FD1963D409000040E1BFDE24637B2C
:103A4000FB008397E40063877701A6855285829AFD
:103A50003369A90093848406E9BF1971A6DAAE849C
:103A60008395E500A2DC86DE328463DB0500DE247C
:103A700023A0060093F7070885E7930700401DA0E1
:103A8000300836C6EF001020B246E34205FE72470A
:103A9000BD67F98F7977BA9793B717009CC2F1BFCA
:103AA000930700041CC0F6506654D65401450961C2
:103AB0008280DE25011122CC06CE26CA4AC8898B17
:103AC0002E8489CF930774041CC01CC885475CC82A
:103AD000F2406244D2444249056182807400300061
:103AE000AA84A53FA2452A892685012219E98317C0
:103AF000C40013F7072069FFF19B93E727005EA43A
:103B0000D1B7970700009387C7D99CD45E2408C01B
:103B100008C893E707085EA4A2475CC8B24781CFF4
:103B20008315E4002685EF00901811C55E24F19BF3
:103B300093E717005EA45E243369F900231624017D
:103B400041BFDDC183A7C5FF411122C406C626C2FD
:103B50001384C5FF63D307003E94AA84EF00F01BD3
:103B6000938701849C4381EF2322040023A0818456
:103B70002244B2402685924441016F00301A637E90
:103B8000F40014403307D4006396E7009843DC4305
:103B9000369718C05CC0D9BFBA87D84319C3E37D34
:103BA000E4FE94433386D700631F86001040B2962C
:103BB00094C33386D700E31DC7FA10435843B29627
:103BC00094C3D8C375B76375C400B1479CC04DB7E3
:103BD0001040B306C4006316D70014435843B2968E
:103BE00014C058C0C0C369B78280011126CA93842B
:103BF0003500F19806CE22CC4AC84EC6A104B14782
:103C000063F3F404B14463E2B4042A89EF00F010D2
:103C10009387018498433A8439E0938741849C4395
:103C200091E781454A85152F23A2A184A6854A855F
:103C30002D27FD5963193507B1472320F9004A851F
:103C4000EF00D00D29A0E3D004FCB1471CC1014511
:103C5000F2406244D2444249B249056182801C402C
:103C6000858F63CF0702AD4663F6F6001CC03E9415
:103C700004C031A05C406313870223A0F1844A850D
:103C8000EF00D0091305B40093074400619933078E
:103C9000F5405DDF3A94898F1CC05DBF5CC3C5B73A
:103CA0002287404095BF130435007198E30285FCDC
:103CB000B305A4404A855525E31C35FBB5BF1C461A
:103CC000FD171CC663DA0700184E63C5E700A94755
:103CD0006394F5006FF09F811C422E8513871700B7
:103CE00018C28CA38280011122CC26CA4AC84EC6B3
:103CF00052C406CE2A89AE893284B304D6007D5AD6
:103D000063149400014501A80C204E864A85453F66
:103D10000504E31745FFF2406244D2444249B249E8
:103D2000224A05618280357122CD26CB4AC94EC711
:103D300006CF52C556C35AC1DEDEE2DCE6DAAA89F6
:103D4000AE843289368409C51C4D99E3EFF03FBA41
:103D500097170000938747946397F40C83A4490056
:103D6000DE24A18BFDC39C48EDC393070002A3048E
:103D7000F1029307000302D22305F10222C6930B3E
:103D80005002971A0000938A2A95054C294B4A84C1
:103D90001C2099C3639E770DB30C2441638D0C00E6
:103DA000E6864A86A6854E853D3FFD57630FF51C86
:103DB0009256E69636D21C206389071CFD571309DC
:103DC000140002C802CE3ECA02CCA309010482D468
:103DD00083450900154656852D2713041900C2474F
:103DE00051E913F7070109C713070002A309E1040A
:103DF00013F7870009C71307B002A309E10483463C
:103E000009001307A002638FE606F2474A84814641
:103E10002546182093051400130707FD6377E60A6B
:103E2000B5CA3ECE85A8971700009387E7886395AB
:103E3000F40083A489002DB7971700009387C783E8
:103E4000E390F4F283A4C90021BFA6854E85EFF06C
:103E5000AFF501DD7D55FA406A44DA444A49BA4972
:103E60002A4A9A4A0A4BF65B665CD65C0D618280F0
:103E7000050439BF330555413315AC00C98F3EC821
:103E80002289B9B7324793064700184336C66347BD
:103E900007023ACE18209307E002631DF70418309A
:103EA0009307A002631BF702B24709041387470078
:103EB0009C433AC663C107023ECA2DA83307E040BF
:103EC00093E727003ACE3EC8F1B7B387670385462C
:103ED0002E84BA973DBFFD57C5B7050402CA814677
:103EE00081472546182093051400130707FD6374C6
:103EF000E606F9F20C200D46170500001305457E75
:103F0000092511CD970700009387877D1D8D9307A5
:103F10000004B397A700424505045D8D2AC80C2014
:103F20001946170500001305E57B13091400230447
:103F3000B102C12B35C197C7FFFF9387A70C95E747
:103F40004247B2471377071009CF91073EC69257F1
:103F5000D2973ED22DBDB387670385462E84BA978C
:103F600051B79D07E19BA107D5B7780097060000E0
:103F70009386A6D726860C084E8597000000E7009A
:103F80000000FD572A8AE314F5FCDE2493F70704AA
:103F9000E39207EC1255C1B57800970600009386AE
:103FA000C6D426860C084E85012AE1BF797156CA0F
:103FB0009C49BA8A984522D426D24ECE52CC06D6F7
:103FC0004AD05AC85EC6AA892E84B284368A63D380
:103FD000E700BA879CC00347340419C385079CC017
:103FE0001C4093F7070281C79C4089079CC00329A6
:103FF000040013796900631A0900130B9401FD5B37
:104000005C449840998F634CF9041C408346340407
:1040100093F70702B336D000A5EB13063404D2851C
:104020004E85829AFD576303F5041C401146984063
:10403000998B544481446397C700B384E64063D3AB
:10404000040081441C4418486354F700998FBE94BF
:10405000014969047D5B63982405014509A88546EB
:104060005A86D2854E85829A631E75017D55B2505F
:10407000225492540259F249624AD24A424BB24BFC
:10408000456182800509ADBF3307D40013060003E4
:10409000A301C7040347540493871600A297890617
:1040A000A381E7049DBF85462286D2854E85829AEC
:1040B000E30E65FB050945B7797122D426D24AD0B3
:1040C0004ECE06D652CC56CA5AC8B689942D9307FE
:1040D00090063289AA842E8413863504638DF602F5
:1040E00063E2D706930780056386F61863EDD70071
:1040F000638E062093073004638EF60A930A240425
:104100002301D404C9A0930730066385F60A9307F8
:104110004006E395F6FE1C40084393F60708930516
:104120004500C5C61C410CC363D807001307D00265
:10413000B307F040A301E404970600009386065BF2
:10414000294765A8930700076382F61663E5D7023F
:104150009307E0066389F6189307F006E390F6FAF2
:104160000C401C4313F80508138547006307080635
:1041700008C39C4385A893075007E383F6FE930783
:1041800080076389F61293073007E399F6F61C431C
:10419000D04181459386470014C383AA0700568502
:1041A0008D2601C53305554148C05C401CC8A3019C
:1041B000040461A81C43930A2404938647009C438B
:1041C00014C32301F4048547D5B793F607041C41B3
:1041D0000CC3B9DAC207C18781BF93F5050408C3D0
:1041E000C9D99E231307F0066387E60E97060000E1
:1041F0009386C64F2947A30104044C400CC463C5F1
:10420000050008406D9908C099E3B28A89CDB28A49
:10421000B3F5E702FD1AB6958C212380BA00B3D519
:10422000E70263F0E70CA147631EF7001C40858B93
:1042300091CB58401C4863C7E70093070003A38F46
:10424000FAFEFD1A3306564110C84E87CA86700022
:10425000A2852685EFF09FD57D5A631D450B7D55C0
:10426000B250225492540259F249624AD24A424B05
:1042700045618280A382D504970600009386064795
:104280000C40084313F805081C411105630D080292
:1042900008C313F7150001C793E505020CC0414799
:1042A000B9FB0C4093F5F5FD0CC0B1B79C4193E709
:1042B00007029CC193078007A302F404970600003D
:1042C0009386064475BF13F8050408C3E30308FC8E
:1042D000C207C1837DBF9706000093862641214710
:1042E00019BFAE8735B794411C43CC4913F8060873
:1042F000138547006306080008C39C438CC339A09C
:1043000008C393F606049C43F5DA8EA32328040021
:10431000B28A25BF14485686CA8526858299E3004D
:1043200045F51C40898B8DE7B2474844E35AF5F2C6
:104330003E853DB785465686CA8526858299E30027
:1043400065F3050A5C443247998FE345FAFEE9BFFD
:10435000014A930A94017D5BF5B7411122C42A8476
:104360002E8523A8015406C6EFE0BFF5FD5763175D
:10437000F500938701559C4391C31CC0B240224471
:1043800041018280411122C42E848395E50006C636
:104390007922634905007C48AA977CC8B240224430
:1043A000410182805E247D777D17F98F5EA4FDB781
:1043B000DE25011122CC26CA4AC84EC606CE93F786
:1043C0000710AA842E843289B68991C78395E500A7
:1043D0008946014609225E247D777D17F98F5EA408
:1043E0008315E4006244F240CE864A86B2494249CF
:1043F0002685D244056125A8411122C42E848395C7
:10440000E50006C6C928FD575A24631AF500FD7752
:10441000FD17F98F5EA4B240224441018280856776
:10442000D98F5EA468C8C5BF8395E50005A8411172
:1044300022C42A842E85B285368623A8015406C656
:10444000EFE0BFE0FD576317F500938701559C43EC
:1044500091C31CC0B240224441018280411122C458
:104460002A842E8523A8015406C6C520FD5763174C
:10447000F500938701559C4391C31CC0B240224470
:1044800041018280411122C42A842E85B28523A84D
:10449000015406C6C920FD576317F50093870155DF
:1044A0009C4391C31CC0B24022444101828041110F
:1044B00022C42A842E8523A8015406C65D20FD57F8
:1044C0006317F500938701559C4391C31CC0B2400C
:1044D000224441018280411122C42A842E85B28562
:1044E000368623A8015406C65920FD576317F500E8
:1044F000938701559C4391C31CC0B24022444101A3
:10450000828093F5F50F2A966314C50001458280D9
:104510001C21E38EB7FE0505C5BF82808280411154
:1045200022C42A842E85B285368623A8015406C665
:10453000A920FD576317F500938701559C4391C34C
:104540001CC0B2402244410182809307800523A809
:10455000F1547D5582809307800523A8F1547D5541
:1045600082809307800523A8F15401458280930738
:10457000800523A8F1547D5582809307800523A8E8
:10458000F1547D558280000055305F4F3A25303818
:104590006C780A0053797374656D436C6B3A2564CB
:1045A0000D0A00006D61696E0D0000009E0F000095
:1045B000C20D00008E100000760E00008E1000006C
:1045C000740D0000180C00008E100000860D000015
:1045D000AA0D0000820F00009610000012011001C9
:1045E00002000040861A0CFE0100010200010000DA
:1045F00009024300020100803209040000010202A6
:104600000100052400100105240100010424020218
:10461000052406000107058103400001090401008B
:10462000020A00000007050202400000070583029D
:10463000400000000E037700630068002E00630056
:104640006E00000016035500530042002000530086
:1046500065007200690061006C0000001603300004
:1046600031003200330034003500360037003800A6
:104670003900000000000000000000000000000001
:10468000000000000000000000000000000000002A
:10469000000000000000000000000000000000001A
:1046A000000000000000000000000000000000000A
:1046B00000000000000000000000000000000000FA
:1046C00000000000000000000000000000000000EA
:1046D00000000000232D302B20000000686C4C00EF
:1046E000656667454647000030313233343536372A
:1046F00038394142434445460000000030313233EE
:10470000343536373839616263646566000000000D
:104710000000000001020304010203040607080967
:104720000000000094460000B446000074460000FB
:104730000000000000000000000000000000000079
:104740000000000000000000000000000000000069
:104750000000000000000000000000000000000059
:104760000000000000000000000000000000000049
:104770000000000000000000000000000000000039
:1047800000D8B80502040608C40D0020100000205F
:084790000403090410000020DD
:00000001FF
