:040000006F102065F8
:10000400000000000000000034130000F2130000A0
:100014000000000050160000000000000000000076
:100024005016000050160000000000000000000000
:1000340050160000000000005016000000000000F0
:100044005016000050160000501600005016000014
:100054005016000050160000501600005016000004
:1000640050160000501600005016000050160000F4
:1000740050160000501600005016000050160000E4
:1000840050160000501600005016000050160000D4
:1000940050160000501600005016000050160000C4
:1000A40050160000501600005016000050160000B4
:1000B4003C130000501600005016000050160000BB
:1000C4005016000050160000501600005016000094
:1000D4005016000050160000501600005016000084
:1000E400501600005016000050160000E0040000F6
:0C00F400501600005016000050160000CE
:10010000411106C622C40008B707002003A7070054
:10011000B7479508938707406316F7000945EF1026
:10012000F00625A8B707002003A70700B7E7B80522
:10013000938707806316F7000545EF10300531A857
:10014000B707002003A70700B777DC02938707C033
:100150006315F7000145EF10700385450565EF1045
:10016000B0060100B240224441018280011122CE3A
:100170000010B707005013070004D8A7B7070050B6
:1001800013078004D8B7B7070050370700201307BC
:10019000870398CBB707005013878187D8CBB70761
:1001A0000050370700201307870F98CFB70700507C
:1001B0001387818BD8CFB7070050A3890702B707F1
:1001C0000050A38D0702B7070050239A0702B70714
:1001D0000050239E0702B707005009472389E70212
:1001E000B70700500947238BE702B70700500947BC
:1001F000238FE702A30704FE29A80347F4FE938791
:100200000182BA97238007008347F4FE8507A3077E
:10021000F4FE0347F4FE9D47E3F1E7FE010072445C
:1002200005618280797106D622D40018232EA4FCA1
:100230008327C4FDA5C3B7070050194798A32945D4
:10024000EF10100AB707005023800700B7070050CF
:100250001D47B8A3B70700501307900298A339377A
:10026000B7070050130710F898B39307B00323267D
:10027000F4FE8327C4FEFD8B0547B316F70037E76E
:1002800000E08327C4FE9583938707048A07BA9703
:1002900094C381A0B7070050194798A32945EF10D0
:1002A0003004B7070050238007009307B0032324CE
:1002B000F4FE832784FEFD8B0547B316F70037E76E
:1002C00000E0832784FE9583938707068A07BA9701
:1002D00094C30100B250225445618280797106D6E0
:1002E00022D40018AA87232CB4FC3687A30FF4FC71
:1002F000B287231EF4FCBA87230FF4FC8347F4FD76
:100300006387071C0347F4FD9D4763E2E71C03472F
:10031000F4FD93870182BA979C2393F7F70F6396B6
:10032000071A0347F4FD85476307F7000347F4FD09
:1003300091476313F702B7070050B1079C23A30747
:10034000F4FE0347F4FD85476314F7088347F4FE82
:100350009183A307F4FEADA80347F4FD8947630723
:10036000F7000347F4FD8D476313F702B70700500A
:10037000B5079C23A307F4FE0347F4FD8D476319DB
:10038000F7048347F4FE9183A307F4FE91A003478B
:10039000F4FD95476307F7000347F4FD994763139E
:1003A000F702B7070050B9079C23A307F4FE0347E1
:1003B000F4FD9947631EF7008347F4FE9183A3077A
:1003C000F4FE39A0B7070050BD079C23A307F4FE35
:1003D0008347F4FE918B638E070E8347F4FEA18B57
:1003E00091C7930700042307F4FE19A0230704FE16
:1003F0008347E4FEA1EB8347E4FD85E3832784FD87
:1004000093960701C1820347F4FDB70700149107D3
:10041000BA978A07368798C3A9A80347F4FDB70798
:1004200000149107BA978A079843B7070020BA9734
:100430003E878357C4FD3E86832584FD3A85EF10B1
:10044000A07A05A80347E4FE8346F4FDB70700142D
:100450009107B6978A079C433E97B7070020BA9743
:100460003E878357C4FD3E86832584FD3A85EF1081
:10047000A0770347F4FD93870182BA97054798A3B5
:100480000347F4FDB7070014B107BA978A073E8700
:100490008357C4FD1EA38347F4FD13972700B707B6
:1004A000005093872703BA979C2393F7F70F0347CE
:1004B000F4FD9316270037070050130727033697DC
:1004C000F19B93F7F70F1CA329A0854729A0854727
:1004D00019A0010081473E85B250225445618280B7
:1004E000011122CE0010B7070050FC23A305F4FE33
:1004F000B7070050FC332305F4FE8347B4FE898B15
:10050000E38207468347A4FE93F70703130700021D
:10051000638AE70013070003638BE7546381071EB8
:100520006F00B0438347A4FE93F7F703130710024D
:10053000638BE710130730026380E716130700028E
:100540006399E71A83D7A181C207C18391E7B707EF
:1005500000501147A389E70283C7518193F7F70F32
:1005600093F70706639A071883C7418193F7F70F3C
:100570001547638CE70819476395E70C83D7A1817A
:100580001397070141839307F00363E7E70083D7DD
:10059000A181C207C18319A0930700042316F4FEAA
:1005A00083A701810357C4FE3A86BE85B7070020A2
:1005B00013858703EF10406383D7A1811397070149
:1005C00041838357C4FEB307F74013970701418364
:1005D000239DE18003A701818357C4FE3E9723A892
:1005E000E180B70700500357C4FE9ABBB70700501D
:1005F00083C7270313F7F70FB707005013474700C8
:100600001377F70F2389E70235A8B7070050BC33EB
:1006100093F7F70FE207E18793F707F8139787013E
:10062000618783C7D18193F7F70FE207E187D98FFD
:10063000139787016187B70700501377F70FB8B397
:1006400011A0010055A8B707005083C7670313F72F
:10065000F70FB7070050134747001377F70F238BA7
:10066000E702B707005083C7670393F7F70FE20766
:10067000E187F19BE207E18793E727001397870162
:100680006187B70700501377F70F238BE702938733
:100690000182A380070095A0B707005083C7E70336
:1006A00013F7F70FB7070050134747001377F70FFB
:1006B000238FE702B707005083C7E70393F7F70FCD
:1006C000E207E187F19BE207E18793E727001397B1
:1006D00087016187B70700501377F70F238FE70271
:1006E00093870182A3810700938781CF238A070222
:1006F00029A001006F00702601006F0010268347BB
:10070000A4FE93F7F70389C70947638FE716B1AED5
:10071000B70700509C472316F4FE8347A4FE93F7C7
:1007200007046380073483C7518193F7F70F93F76A
:100730000706638B0712239D018083C7418113F74E
:10074000F70F930700026311F712B707002003C7E2
:100750008703B70700202384E700B70700209387AB
:1007600087039833B70700209387870098B3B707AC
:10077000002093878703B823B7070020938787005B
:10078000B8A3B707002093878703B833B7070020C3
:1007900093878700B8B3B707002093878703D823D0
:1007A000B707002093878700D8A3B7070020938757
:1007B0008703D833B707002093878700D8B3B707DC
:1007C000002093878703F823B707002093878700CB
:1007D000F8A3B7070020938787007947F8B3B707D6
:1007E000002083C787032322F4FEB70700209387E6
:1007F00087039C33A207032744FEBA972322F4FE03
:10080000B707002093878703BC23C207032744FE52
:10081000BA972322F4FEB707002093878703BC33DF
:10082000E207032744FEBA972322F4FEB7070050DD
:10083000370700201307870F98CFB707005083C7EB
:10084000B70313F7F70FB7070050719B1377F70F34
:10085000A38DE70237070050B70700500347B703DF
:100860001377F70FA38DE70283D7A181C207C18356
:100870006399071EB707005023980702B707005077
:1008800011472389E702F1AAB707005083C7B703CE
:1008900013F7F70FB7070050134747001377F70F09
:1008A000A38DE702B70700509047138781CF182721
:1008B0001377F70F938781CF9C3793F7F70FA20732
:1008C000D98FC207C183BE861317060141838606EE
:1008D000938781CFB6979375F70FF427818A368671
:1008E000AE86D18EF4A72183131607014182F83713
:1008F000018BBA863287558FF8B7138781CF1827B7
:100900001377F70F938781CF9C3793F7F70FA207E1
:10091000D98FC207C1838507139707014183938746
:1009200081CF9375F70F9427818A3686AE86D18E54
:1009300094A721831316070141829837018BBA8649
:100940003287558F98B7138781CF18271377F70F02
:10095000938781CF9C3793F7F70FA207D98FC207F0
:10096000C18313976700938701D43E97B707005060
:1009700098CF138781CF18271377F70F938781CFED
:100980009C3793F7F70FA207D98F1397070141837D
:10099000BD4763FFE700938781CF9827018B98A716
:1009A0009837018B98B7B7070050138701D498CFB9
:1009B000138781CF58271377F70F938781CFDC37C1
:1009C00093F7F70FA207D98FC207C1838507139743
:1009D00007014183938781CF9375F70FD427818ACD
:1009E0003686AE86D18ED4A72183131607014182A5
:1009F000D837018BBA863287558FD8B7138781CF06
:100A000058271377F70F938781CFDC3793F7F70FCA
:100A1000A207D98F139707014183B54763F6E7040F
:100A2000B707005083C7B70313F7F70FB707005096
:100A3000719B1377F70FA38DE702B707005083C7A9
:100A4000B70313F7F70FB7070050136727001377A3
:100A5000F70FA38DE702938781CF0547A38CE702A9
:100A600021A001006F00606F01006F00006FB707E9
:100A7000005019472389E702B70700501947A38997
:100A8000E702B7070020938787039823A38AE180B2
:100A9000B7070020938787039833238AE180B7073D
:100AA000002093878703F823FC33A207D98F13977D
:100AB00007014183239DE180B707002093878703C7
:100AC000B823BC33A207D98F139707014183239B17
:100AD000E180B707002093878703D823DC33A20780
:100AE000D98F139707014183239CE180231604FECD
:100AF000A30704FE83C7518193F7F70F93F7070607
:100B0000F9C783C7518193F7F70F93F70702B1CB6A
:100B100083C7418193F7F70F130710026384E7023D
:100B2000130710026347F700130700026386E70408
:100B300025A0130720026383E704130730026381B3
:100B4000E70419A8370700201307870023A8E180CE
:100B50009D472316F4FE35A0FD57A307F4FE0100C0
:100B60000DA083C7518193F7F70F93F7070491EB1B
:100B7000FD57A307F4FE31A0010021A0010011A040
:100B8000010083D7A1811397070141839307F003E5
:100B900063E7E70083D7A181C207C18319A0930748
:100BA00000042316F4FE83A701810357C4FE3A868E
:100BB000BE85B707002013858703EF10E00203A767
:100BC00001818357C4FE3E9723A8E180F1A983C722
:100BD000418193F7F70F2D47636BF74A139727006F
:100BE00089679387C7CBBA979C43828783D76181F4
:100BF000C207C183A183C207C18393F7F70F0947D7
:100C00006383E7020D476389E7040547639EE70CAA
:100C100009671307C7CE23A8E180896783C7C7CEBA
:100C20002316F4FEF1A00967130707D023A8E1807B
:100C30008967938707D0BC2313970701418389678E
:100C4000938707D0BC33C207C183A207C207C18301
:100C5000BA972316F4FE69A883D76181C207C183BE
:100C600093F7F70F0547638BE70205476344F700E7
:100C700089CBB5A00947638EE7020D476386E70479
:100C8000B9A8370700201307470023A8E180B7075A
:100C9000002083C747002316F4FEB1A0096713079D
:100CA00047D423A8E180896783C747D42316F4FE7D
:100CB0001DA80967130747D523A8E180896783C763
:100CC00047D52316F4FE05A009671307C7D623A846
:100CD000E180896783C7C7D62316F4FE29A0FD5794
:100CE000A307F4FE010029A0FD57A307F4FE0100AD
:100CF00083D7A181C207C1830357C4FE6376F7007F
:100D00000357C4FE239DE18083D7A1811397070178
:100D100041839307F00363E7E70083D7A181C2070C
:100D2000C18319A0930700042316F4FE83A7018151
:100D30000357C4FE3A86BE85B70700201385870394
:100D4000EF00906A03A701818357C4FE3E9723A852
:100D5000E18099AE83D76181C207C18313F7F70F92
:100D6000A38EE18091A683C7C18113F7F70FB70760
:100D70000020238CE70283D7A181139707014183C9
:100D8000854763FCE7300547239DE18039A683D77B
:100D90006181C207C18313F7F70F238EE1800547F6
:100DA000A38FE18011A683C7518193F7F70FFD8BC5
:100DB00085E783D76181C207C18313F7F70F8547A2
:100DC000631FF72C83C7E18193F7F70FF99B13F7A4
:100DD000F70F238FE180E1A483C7518193F7F70FC9
:100DE00013F7F70189476315F70683D76181C207B7
:100DF000C18393F7F70FA9EB83D78181C207C18322
:100E000093F7F70F13071008638AE70013073008FA
:100E10006381E70209476389E70015A0B70700501F
:100E20000947238BE7020DA8B7070050A38D0702DF
:100E300025A0B70700500947238FE70231A8FD57C7
:100E4000A307F4FE010009A8FD57A307F4FE81AC37
:100E5000FD57A307F4FEA1A499A483C7518193F77A
:100E6000F70FFD8BA1E783D76181C207C18313F719
:100E7000F70F85476318F7028967938707D0FC331C
:100E800093F7070281CF83C7E18193F7F70F93E7C9
:100E9000170013F7F70F238FE18039A4FD57A3073D
:100EA000F4FE19A4FD57A307F4FEFDAA83C75181E0
:100EB00093F7F70F13F7F70189476311F70A83D701
:100EC0006181C207C18393F7F70FC9E783D7818197
:100ED000C207C18393F7F70F13071008638AE7006F
:100EE000130730086384E70409476382E702B1A867
:100EF000B707005083C7670313F7F70FB707005012
:100F0000136737001377F70F238BE702A1A8B70702
:100F1000005083C7B70313F7F70FB70700501367E5
:100F200037001377F70FA38DE7022DA8B7070050FE
:100F300083C7E70313F7F70FB707005013673700AE
:100F40001377F70F238FE70231A8FD57A307F4FEAD
:100F5000010009A8FD57A307F4FEB9A2FD57A30796
:100F6000F4FE99A291A2B7070020238C070283D731
:100F7000A181139707014183854763F4E712054771
:100F8000239DE18039AAB7070020238C0702B70709
:100F9000002093878703A380070083C7518193F7BD
:100FA000F70FFD8B89EF83C7E18193F7F70F858BEF
:100FB000F9C3B70700200947238CE7026DA883C750
:100FC000518193F7F70F13F7F7018947631CF7086F
:100FD00083D78181C207C18393F7F70F13071008E6
:100FE000638AE700130730086388E70409476384CE
:100FF000E702A5A0B707005083C7670393F7F70F71
:1010000013F737008D476313F706B707002005472E
:10101000238CE702A1A8B707005083C7B70393F753
:10102000F70F13F737008D476314F704B707002055
:101030000547238CE7022DA8B707005083C7E703B5
:1010400093F7F70F13F737008D476315F702B707CC
:1010500000200547238CE70231A8FD57A307F4FEC3
:10106000010011A8FD57A307F4FE31A0010021A043
:10107000010011A0010083D7A181139707014183CB
:10108000894763F2E7020947239DE18029A8FD57BC
:10109000A307F4FE11A8010001A8010031A001007E
:1010A00021A0010011A001000347F4FE9307F00FF7
:1010B000631DF700B70700501D472389E702B707F4
:1010C00000501D47A389E70241A883C7518193F7C8
:1010D000F70FE207E18763DD070483D7A181139748
:1010E000070141839307000463E7E70083D7A181E9
:1010F000C207C18319A0930700042316F4FE83D707
:10110000A1811397070141838357C4FEB307F740BA
:10111000139707014183239DE180B70700500357D0
:10112000C4FE9ABBB707005011472389E7022DA0E0
:1011300083D7A181C207C18399EBB70700502398D9
:101140000702B707005011472389E70231A0B7070C
:1011500000501147A389E7020100B7070050094773
:10116000F8A341A88347B4FE858B95C7238E0180E1
:10117000A38E0180238F0180A38F0180B7070050C9
:10118000A3810700EFE09FFE05454520B70700500B
:101190000547F8A3B9A88347B4FE918BB1C7B70739
:1011A00000501147F8A32945EF009013B7070050EE
:1011B000DC3393F7F70F918B91CF83C7E18193F7DE
:1011C000F70F93E7270013F7F70F238FE18083C70B
:1011D000E18105A083C7E18193F7F70FF59B13F732
:1011E000F70F238FE18031A0B70700500347B4FE0B
:1011F000F8A301007244056173002030411106C656
:1012000022C4000885451145EF007000854537056B
:101210000200EF00300485450545EF00E07A814784
:101220003E85B240224441018280797122D6001865
:10123000AA87A30FF4FC239C01CE938781CF23912F
:101240000700938781CF23920700938781CF238361
:101250000700938781CF7947F8B3938781CF239491
:101260000700938781CF23950700938781CF23962B
:101270000700A30704FE31A88347F4FE138781CF3C
:101280008607BA97239707008347F4FE8507A307CD
:10129000F4FE0347F4FEBD47E3F0E7FE938781CFFA
:1012A00023870702938781CF23980702938781CFF3
:1012B00023990702938781CF238A0702938781CFDF
:1012C000239B0702938781CF238C0702938781CFCB
:1012D000A38C070223A4018223A601828347F4FD85
:1012E000B1C7938781CF238D0702938781CF1307DF
:1012F00020FCA38DE702938781CF0547238EE70269
:10130000938781CFA38E0702938781CF238F070214
:10131000938781CFA38F0702938781CF21472380B3
:10132000E704938781CF7947A380E7040100325413
:1013300045618280411122C6000801A0411122C6E8
:10134000000883C7018381CBB717014093870780CB
:10135000216798CB39A0B717014093870780216791
:10136000D8CB83C7018393C7170013F7F70F2388E0
:10137000E182938781CFFC2393F7F70F850713F75B
:10138000F70F938781CFF8A3138781CF03476703B4
:101390001377F70F938781CF83C7770393F7F70FFF
:1013A000A207D98FC207C18385071397070141831D
:1013B000938781CF9375F70F83C66703818A36863B
:1013C000AE86D18E238BD70221831316070141826B
:1013D00003C77703018BBA863287558FA38BE70249
:1013E000B707004079579AAB0100324441017300BE
:1013F0002030411122C6000801A0011106CE22CCE6
:101400000010232204FE232404FE232604FE854527
:101410004145F52B89672312F4FEC1472326F4FECC
:101420008D472324F4FE930744FEBE853715014003
:1014300065240100F240624405618280011106CEFC
:1014400022CC0010A30704FE892D4D3BEFE05FCBBB
:101450000545EFE03FDD1305803E2927793F896789
:101460009387C7CA2324F4FE032584FEEF00F0020D
:10147000AA87C207C18385463E86832584FE0D4523
:10148000EFE0DFE58347F4FE91E78547A307F4FE2D
:10149000854721A0A30704FE81473E86896537154D
:1014A000014059291305A00F752D7DBF411106C6B6
:1014B00022C40008B71702409843B71702401367C9
:1014C000170098C3B7170240D443B7170240370735
:1014D000FFF0758FD8C3B71702409443B717024087
:1014E0003707F7FE7D17758F98C3B71702409443EF
:1014F000B71702403707FCFF7D17758F98C3B717E2
:101500000240D443B7170240370701FF7D17758F9C
:10151000D8C3B717024037079F0098C73120010092
:10152000B240224441018280411106C622C4000813
:1015300031200100B240224441018280011122CEBB
:101540000010232604FE232404FEB7170240944310
:10155000B71702404167558F98C3B71702409843A9
:10156000B7070200F98F2324F4FE8327C4FE850702
:101570002326F4FE832784FE91E70327C4FE8567B4
:10158000E31DF7FCB71702409843B7070200F98F35
:1015900089C785472324F4FE19A0232404FE0327CA
:1015A00084FE85476312F70A37170240B7170240D7
:1015B0005843D8C337170240B71702405843D8C31F
:1015C000B7170240D843B717024013670740D8C384
:1015D000B7170240D443B71702403707C1FF7D1742
:1015E000758FD8C3B7170240D443B71702403707E7
:1015F0002900558FD8C3B71702409443B71702404C
:1016000037070001558F98C30100B7170240984370
:10161000B7070002F98FF5DBB7170240D843B717B9
:101620000240719BD8C3B7170240D843B717024096
:1016300013672700D8C30100B7170240DC4313F734
:10164000C700A147E31AF7FE0100724405618280DA
:1016500001A097F1FF1F9381E11A174100201301A8
:10166000619A170500001305257297F5FF1F9385F2
:1016700065991386818063FAC5008322050023A043
:10168000550011059105E3EAC5FE13858180938518
:1016900001146377B500232005001105E36DB5FE45
:1016A000FD42739002BC8D42739042809302800889
:1016B0007390023097F2FFFF9382029593E232001B
:1016C00073905230EFF09FDE97020000938242D772
:1016D0007390123473002030397122DE800023268B
:1016E000A4FC2324B4FC232604FE232004FE23248C
:1016F00004FE232E04FC232204FE232C04FC832757
:1017000084FC9C47BD8B2326F4FE832784FC9C47E6
:10171000C18B89CB832784FCDC430327C4FED98F8C
:101720002326F4FEB7270240938707039843B707A1
:10173000000FF98F81E70547A388E1820327C4FCE6
:10174000B7170140631FF70083C7118399CB832725
:1017500084FC9E23B583139707014183832784FC70
:101760009AA3832784FC9E2393F7F70FE9CF83275F
:10177000C4FC9C432322F4FE232404FE5DA883279B
:1017800084FE0547B317F700232EF4FC832784FC5F
:101790009E233E878327C4FDF98F2320F4FE032771
:1017A00004FE8327C4FD6311F708832784FE8A079C
:1017B000232EF4FC8327C4FD3D47B317F700232CE9
:1017C000F4FC832784FD93C7F7FF032744FEF98FBA
:1017D0002322F4FE8327C4FD0327C4FEB317F700BA
:1017E000032744FED98F2322F4FE832784FC9847E5
:1017F00093078002631BF700832784FE0547331796
:10180000F7008327C4FCD8CB05A0832784FC984726
:1018100093078004631AF700832784FE0547331774
:10182000F7008327C4FC98CB832784FE85072324F5
:10183000F4FE032784FE9D47E3F3E7F48327C4FC0B
:10184000032744FE98C3832784FC9A239307F00F51
:1018500063F0E70E8327C4FCDC432322F4FE232439
:1018600004FE6DA8832784FEA1070547B317F70080
:10187000232EF4FC832784FC9E233E878327C4FD0C
:10188000F98F2320F4FE032704FE8327C4FD63128F
:10189000F708832784FE8A07232EF4FC8327C4FDE0
:1018A0003D47B317F700232CF4FC832784FD93C72F
:1018B000F7FF032744FEF98F2322F4FE8327C4FD9C
:1018C0000327C4FEB317F700032744FED98F232252
:1018D000F4FE832784FC984793078002631BF7007C
:1018E000832784FEA10705473317F7008327C4FC2D
:1018F000D8CB832784FC984793078004631BF700A9
:10190000832784FEA10705473317F7008327C4FC0C
:1019100098CB832784FE85072324F4FE032784FEC7
:101920009D47E3F1E7F48327C4FC032744FED8C3B3
:101930000100725421618280011122CE0010232601
:10194000A4FEAE872322C4FE2315F4FE0327C4FEA3
:10195000B7170140631AF70083C7118391C78357F4
:10196000A4FEB5832315F4FE832744FE99C70357CD
:10197000A4FE8327C4FE98CB31A00357A4FE83277F
:10198000C4FED8CB0100724405618280011122CED1
:1019900000102326A4FEB7170240D443B717024015
:1019A000370740FF7D17758FD8C3B7170240D44360
:1019B0008327C4FE13976701B7170240558FD8C31A
:1019C0000100724405618280011122CE001023269D
:1019D000A4FE2324B4FE832784FE99CBB7170240CC
:1019E000D44BB71702400327C4FE558FD8CB21A88C
:1019F000B7170240D44B8327C4FE13C7F7FFB717AE
:101A00000240758FD8CB01007244056182800111BC
:101A100022CE00102326A4FE2324B4FE832784FEB6
:101A200099CBB7170240944FB71702400327C4FE63
:101A3000558F98CF21A8B7170240944F8327C4FE33
:101A400013C7F7FFB7170240758F98CF0100724494
:101A500005618280011122CE00102326A4FE2324DA
:101A6000B4FE832784FE99CBB7170240D44FB71733
:101A700002400327C4FE558FD8CF21A8B7170240D4
:101A8000D44F8327C4FE13C7F7FFB7170240758FE3
:101A9000D8CF0100724405618280411122C600083E
:101AA000B707002003A70700B7177A00938707201E
:101AB000B357F70213F7F70F2389E18283C7218316
:101AC0001397070141839307803EB307F7021397EB
:101AD00007014183239AE18201003244410182805F
:101AE000797122D60018232EA4FC37F700E0544366
:101AF00037F700E0F99A54C303C72183BA86032756
:101B0000C4FD3307D7022326E4FE37F700E083261F
:101B1000C4FEB68701481CCB232A0701B7F700E0B3
:101B20009843B7F700E01367070198C3B7F700E0E1
:101B30009843B7F700E01367170298C30100B7F79F
:101B400000E0DC4313F717008547E31AF7FEB7F709
:101B500000E09843B7F700E0799B98C30100325446
:101B600045618280797122D60018232EA4FC37F7B4
:101B700000E0544337F700E0F99A54C303D7418398
:101B8000BA860327C4FD3307D7022326E4FE37F7BE
:101B900000E08326C4FEB68701481CCB232A070138
:101BA000B7F700E09843B7F700E01367070198C361
:101BB000B7F700E09843B7F700E01367170298C340
:101BC0000100B7F700E0DC4313F717008547E31A7D
:101BD000F7FEB7F700E09843B7F700E0799B98C3AA
:101BE0000100325445618280B3C7A5008D8B330755
:101BF000C50081E78D4763EDC700AA87637EE508CE
:101C0000942185078505A38FD7FEE3EBE7FE82804D
:101C100093763500AA8789CA942185078505A38F05
:101C2000D7FE93F63700C5BF9376C7FF138606FE2F
:101C300063F0C70683A3050083A2450083AF850038
:101C400003AFC50083AE050103AE450103A38501C3
:101C500083A8C5019385450223A0770003A8C5FF8B
:101C600023A2570023A4F70123A6E70123A8D70145
:101C700023AAC70123AC670023AE1701938747024D
:101C800023AE07FF75B790419107910523AEC7FEBC
:101C9000E3EBD7FEE3E6E7F68280AA87850703C772
:101CA000F7FF6DFF3385A7407D15828048656C6C1A
:101CB0006F2C776F726C64210A000000860F0000A1
:101CC000A60D00008E1000005A0E00008E100000BD
:101CD000540D0000EC0B00008E100000660D00009B
:101CE0008E0D0000660F000096100000120110011A
:101CF00002000040861A0CFE0100010200010000F3
:101D000009024300020100803209040000010202BE
:101D10000100052400100105240100010424020231
:101D200005240600010705810340000109040100A4
:101D3000020A0000000705020240000007058302B6
:101D4000400000000E037700630068002E0063006F
:101D50006E0000001603550053004200200053009F
:101D600065007200690061006C000000160330001D
:101D700031003200330034003500360037003800BF
:041D80003900000026
:081D840000D8B80504030904AE
:00000001FF
